{
  "_format": "hh-sol-artifact-1",
  "contractName": "TokenManagerERC20",
  "sourceName": "contracts/schain/TokenManagers/TokenManagerERC20.sol",
  "abi": [
    {
      "anonymous": false,
      "inputs": [
        {
          "indexed": false,
          "internalType": "address",
          "name": "oldValue",
          "type": "address"
        },
        {
          "indexed": false,
          "internalType": "address",
          "name": "newValue",
          "type": "address"
        }
      ],
      "name": "DepositBoxWasChanged",
      "type": "event"
    },
    {
      "anonymous": false,
      "inputs": [
        {
          "indexed": true,
          "internalType": "address",
          "name": "erc20OnMainnet",
          "type": "address"
        },
        {
          "indexed": true,
          "internalType": "address",
          "name": "erc20OnSchain",
          "type": "address"
        }
      ],
      "name": "ERC20TokenAdded",
      "type": "event"
    },
    {
      "anonymous": false,
      "inputs": [
        {
          "indexed": true,
          "internalType": "address",
          "name": "erc20OnMainnet",
          "type": "address"
        },
        {
          "indexed": true,
          "internalType": "address",
          "name": "erc20OnSchain",
          "type": "address"
        }
      ],
      "name": "ERC20TokenCreated",
      "type": "event"
    },
    {
      "anonymous": false,
      "inputs": [
        {
          "indexed": true,
          "internalType": "address",
          "name": "erc20OnMainnet",
          "type": "address"
        },
        {
          "indexed": true,
          "internalType": "address",
          "name": "erc20OnSchain",
          "type": "address"
        },
        {
          "indexed": false,
          "internalType": "uint256",
          "name": "amount",
          "type": "uint256"
        }
      ],
      "name": "ERC20TokenReceived",
      "type": "event"
    },
    {
      "anonymous": false,
      "inputs": [
        {
          "indexed": true,
          "internalType": "bytes32",
          "name": "role",
          "type": "bytes32"
        },
        {
          "indexed": true,
          "internalType": "bytes32",
          "name": "previousAdminRole",
          "type": "bytes32"
        },
        {
          "indexed": true,
          "internalType": "bytes32",
          "name": "newAdminRole",
          "type": "bytes32"
        }
      ],
      "name": "RoleAdminChanged",
      "type": "event"
    },
    {
      "anonymous": false,
      "inputs": [
        {
          "indexed": true,
          "internalType": "bytes32",
          "name": "role",
          "type": "bytes32"
        },
        {
          "indexed": true,
          "internalType": "address",
          "name": "account",
          "type": "address"
        },
        {
          "indexed": true,
          "internalType": "address",
          "name": "sender",
          "type": "address"
        }
      ],
      "name": "RoleGranted",
      "type": "event"
    },
    {
      "anonymous": false,
      "inputs": [
        {
          "indexed": true,
          "internalType": "bytes32",
          "name": "role",
          "type": "bytes32"
        },
        {
          "indexed": true,
          "internalType": "address",
          "name": "account",
          "type": "address"
        },
        {
          "indexed": true,
          "internalType": "address",
          "name": "sender",
          "type": "address"
        }
      ],
      "name": "RoleRevoked",
      "type": "event"
    },
    {
      "inputs": [],
      "name": "AUTOMATIC_DEPLOY_ROLE",
      "outputs": [
        {
          "internalType": "bytes32",
          "name": "",
          "type": "bytes32"
        }
      ],
      "stateMutability": "view",
      "type": "function"
    },
    {
      "inputs": [],
      "name": "DEFAULT_ADMIN_ROLE",
      "outputs": [
        {
          "internalType": "bytes32",
          "name": "",
          "type": "bytes32"
        }
      ],
      "stateMutability": "view",
      "type": "function"
    },
    {
      "inputs": [],
      "name": "MAINNET_HASH",
      "outputs": [
        {
          "internalType": "bytes32",
          "name": "",
          "type": "bytes32"
        }
      ],
      "stateMutability": "view",
      "type": "function"
    },
    {
      "inputs": [],
      "name": "MAINNET_NAME",
      "outputs": [
        {
          "internalType": "string",
          "name": "",
          "type": "string"
        }
      ],
      "stateMutability": "view",
      "type": "function"
    },
    {
      "inputs": [],
      "name": "TOKEN_REGISTRAR_ROLE",
      "outputs": [
        {
          "internalType": "bytes32",
          "name": "",
          "type": "bytes32"
        }
      ],
      "stateMutability": "view",
      "type": "function"
    },
    {
      "inputs": [
        {
          "internalType": "address",
          "name": "erc20OnMainnet",
          "type": "address"
        },
        {
          "internalType": "contract ERC20OnChain",
          "name": "erc20OnSchain",
          "type": "address"
        }
      ],
      "name": "addERC20TokenByOwner",
      "outputs": [],
      "stateMutability": "nonpayable",
      "type": "function"
    },
    {
      "inputs": [
        {
          "internalType": "string",
          "name": "schainName",
          "type": "string"
        },
        {
          "internalType": "address",
          "name": "newTokenManager",
          "type": "address"
        }
      ],
      "name": "addTokenManager",
      "outputs": [],
      "stateMutability": "nonpayable",
      "type": "function"
    },
    {
      "inputs": [],
      "name": "automaticDeploy",
      "outputs": [
        {
          "internalType": "bool",
          "name": "",
          "type": "bool"
        }
      ],
      "stateMutability": "view",
      "type": "function"
    },
    {
      "inputs": [
        {
          "internalType": "address",
          "name": "newDepositBox",
          "type": "address"
        }
      ],
      "name": "changeDepositBoxAddress",
      "outputs": [],
      "stateMutability": "nonpayable",
      "type": "function"
    },
    {
      "inputs": [
        {
          "internalType": "address",
          "name": "",
          "type": "address"
        }
      ],
      "name": "clonesErc20",
      "outputs": [
        {
          "internalType": "contract ERC20OnChain",
          "name": "",
          "type": "address"
        }
      ],
      "stateMutability": "view",
      "type": "function"
    },
    {
      "inputs": [],
      "name": "communityLocker",
      "outputs": [
        {
          "internalType": "contract CommunityLocker",
          "name": "",
          "type": "address"
        }
      ],
      "stateMutability": "view",
      "type": "function"
    },
    {
      "inputs": [],
      "name": "depositBox",
      "outputs": [
        {
          "internalType": "address",
          "name": "",
          "type": "address"
        }
      ],
      "stateMutability": "view",
      "type": "function"
    },
    {
      "inputs": [],
      "name": "disableAutomaticDeploy",
      "outputs": [],
      "stateMutability": "nonpayable",
      "type": "function"
    },
    {
      "inputs": [],
      "name": "enableAutomaticDeploy",
      "outputs": [],
      "stateMutability": "nonpayable",
      "type": "function"
    },
    {
      "inputs": [
        {
          "internalType": "address",
          "name": "contractOnMainnet",
          "type": "address"
        },
        {
          "internalType": "address",
          "name": "to",
          "type": "address"
        },
        {
          "internalType": "uint256",
          "name": "amount",
          "type": "uint256"
        }
      ],
      "name": "exitToMainERC20",
      "outputs": [],
      "stateMutability": "nonpayable",
      "type": "function"
    },
    {
      "inputs": [
        {
          "internalType": "bytes32",
          "name": "role",
          "type": "bytes32"
        }
      ],
      "name": "getRoleAdmin",
      "outputs": [
        {
          "internalType": "bytes32",
          "name": "",
          "type": "bytes32"
        }
      ],
      "stateMutability": "view",
      "type": "function"
    },
    {
      "inputs": [
        {
          "internalType": "bytes32",
          "name": "role",
          "type": "bytes32"
        },
        {
          "internalType": "uint256",
          "name": "index",
          "type": "uint256"
        }
      ],
      "name": "getRoleMember",
      "outputs": [
        {
          "internalType": "address",
          "name": "",
          "type": "address"
        }
      ],
      "stateMutability": "view",
      "type": "function"
    },
    {
      "inputs": [
        {
          "internalType": "bytes32",
          "name": "role",
          "type": "bytes32"
        }
      ],
      "name": "getRoleMemberCount",
      "outputs": [
        {
          "internalType": "uint256",
          "name": "",
          "type": "uint256"
        }
      ],
      "stateMutability": "view",
      "type": "function"
    },
    {
      "inputs": [
        {
          "internalType": "bytes32",
          "name": "role",
          "type": "bytes32"
        },
        {
          "internalType": "address",
          "name": "account",
          "type": "address"
        }
      ],
      "name": "grantRole",
      "outputs": [],
      "stateMutability": "nonpayable",
      "type": "function"
    },
    {
      "inputs": [
        {
          "internalType": "bytes32",
          "name": "role",
          "type": "bytes32"
        },
        {
          "internalType": "address",
          "name": "account",
          "type": "address"
        }
      ],
      "name": "hasRole",
      "outputs": [
        {
          "internalType": "bool",
          "name": "",
          "type": "bool"
        }
      ],
      "stateMutability": "view",
      "type": "function"
    },
    {
      "inputs": [
        {
          "internalType": "string",
          "name": "schainName",
          "type": "string"
        }
      ],
      "name": "hasTokenManager",
      "outputs": [
        {
          "internalType": "bool",
          "name": "",
          "type": "bool"
        }
      ],
      "stateMutability": "view",
      "type": "function"
    },
    {
      "inputs": [
        {
          "internalType": "string",
          "name": "newChainName",
          "type": "string"
        },
        {
          "internalType": "contract MessageProxyForSchain",
          "name": "newMessageProxy",
          "type": "address"
        },
        {
          "internalType": "contract TokenManagerLinker",
          "name": "newIMALinker",
          "type": "address"
        },
        {
          "internalType": "contract CommunityLocker",
          "name": "newCommunityLocker",
          "type": "address"
        },
        {
          "internalType": "address",
          "name": "newDepositBox",
          "type": "address"
        }
      ],
      "name": "initialize",
      "outputs": [],
      "stateMutability": "nonpayable",
      "type": "function"
    },
    {
      "inputs": [
        {
          "internalType": "string",
          "name": "newSchainName",
          "type": "string"
        },
        {
          "internalType": "contract MessageProxyForSchain",
          "name": "newMessageProxy",
          "type": "address"
        },
        {
          "internalType": "contract TokenManagerLinker",
          "name": "newIMALinker",
          "type": "address"
        },
        {
          "internalType": "contract CommunityLocker",
          "name": "newCommunityLocker",
          "type": "address"
        },
        {
          "internalType": "address",
          "name": "newDepositBox",
          "type": "address"
        }
      ],
      "name": "initializeTokenManager",
      "outputs": [],
      "stateMutability": "nonpayable",
      "type": "function"
    },
    {
      "inputs": [],
      "name": "messageProxy",
      "outputs": [
        {
          "internalType": "contract MessageProxyForSchain",
          "name": "",
          "type": "address"
        }
      ],
      "stateMutability": "view",
      "type": "function"
    },
    {
      "inputs": [
        {
          "internalType": "bytes32",
          "name": "fromChainHash",
          "type": "bytes32"
        },
        {
          "internalType": "address",
          "name": "sender",
          "type": "address"
        },
        {
          "internalType": "bytes",
          "name": "data",
          "type": "bytes"
        }
      ],
      "name": "postMessage",
      "outputs": [
        {
          "internalType": "address",
          "name": "",
          "type": "address"
        }
      ],
      "stateMutability": "nonpayable",
      "type": "function"
    },
    {
      "inputs": [
        {
          "internalType": "string",
          "name": "schainName",
          "type": "string"
        }
      ],
      "name": "removeTokenManager",
      "outputs": [],
      "stateMutability": "nonpayable",
      "type": "function"
    },
    {
      "inputs": [
        {
          "internalType": "bytes32",
          "name": "role",
          "type": "bytes32"
        },
        {
          "internalType": "address",
          "name": "account",
          "type": "address"
        }
      ],
      "name": "renounceRole",
      "outputs": [],
      "stateMutability": "nonpayable",
      "type": "function"
    },
    {
      "inputs": [
        {
          "internalType": "bytes32",
          "name": "role",
          "type": "bytes32"
        },
        {
          "internalType": "address",
          "name": "account",
          "type": "address"
        }
      ],
      "name": "revokeRole",
      "outputs": [],
      "stateMutability": "nonpayable",
      "type": "function"
    },
    {
      "inputs": [],
      "name": "schainHash",
      "outputs": [
        {
          "internalType": "bytes32",
          "name": "",
          "type": "bytes32"
        }
      ],
      "stateMutability": "view",
      "type": "function"
    },
    {
      "inputs": [
        {
          "internalType": "bytes4",
          "name": "interfaceId",
          "type": "bytes4"
        }
      ],
      "name": "supportsInterface",
      "outputs": [
        {
          "internalType": "bool",
          "name": "",
          "type": "bool"
        }
      ],
      "stateMutability": "view",
      "type": "function"
    },
    {
      "inputs": [],
      "name": "tokenManagerLinker",
      "outputs": [
        {
          "internalType": "contract TokenManagerLinker",
          "name": "",
          "type": "address"
        }
      ],
      "stateMutability": "view",
      "type": "function"
    },
    {
      "inputs": [
        {
          "internalType": "bytes32",
          "name": "",
          "type": "bytes32"
        }
      ],
      "name": "tokenManagers",
      "outputs": [
        {
          "internalType": "address",
          "name": "",
          "type": "address"
        }
      ],
      "stateMutability": "view",
      "type": "function"
    },
    {
      "inputs": [
        {
          "internalType": "contract IERC20Upgradeable",
          "name": "",
          "type": "address"
        }
      ],
      "name": "totalSupplyOnMainnet",
      "outputs": [
        {
          "internalType": "uint256",
          "name": "",
          "type": "uint256"
        }
      ],
      "stateMutability": "view",
      "type": "function"
    },
    {
      "inputs": [
        {
          "internalType": "string",
          "name": "targetSchainName",
          "type": "string"
        },
        {
          "internalType": "address",
          "name": "contractOnMainnet",
          "type": "address"
        },
        {
          "internalType": "address",
          "name": "to",
          "type": "address"
        },
        {
          "internalType": "uint256",
          "name": "amount",
          "type": "uint256"
        }
      ],
      "name": "transferToSchainERC20",
      "outputs": [],
      "stateMutability": "nonpayable",
      "type": "function"
    }
  ],
  "bytecode": "0x608060405234801561001057600080fd5b50615305806100206000396000f3fe60806040523480156200001157600080fd5b5060043610620002315760003560e01c80635573b8b61162000131578063b9581c5011620000bb578063cc5b715b1162000086578063cc5b715b146200051a578063d547741f1462000542578063dec2deb61462000559578063edcc12b5146200056e578063f429e383146200058557600080fd5b8063b9581c5014620004cb578063c0e312dc14620004d5578063ca15c87314620004ec578063cb703bff146200050357600080fd5b8063884cee5a11620000fc578063884cee5a146200047d5780639010d07c146200049457806391d1485414620004ab578063a217fddf14620004c257600080fd5b80635573b8b6146200042a5780636ce681d2146200043e5780636d61128614620004555780636d6c68e6146200046957600080fd5b80632d6eea0611620001bf57806339927cf9116200018a57806339927cf914620003a55780633b690b6b14620003bc5780633fa194ce14620003c65780634d58c88914620003dd57806350f4428014620003f457600080fd5b80632d6eea0614620003375780632dc151de14620003635780632f2ff15d146200037757806336568abe146200038e57600080fd5b80630f1a8f7411620002005780630f1a8f74146200029c578063248a9ca314620002e157806328c5e18214620003165780632baaf643146200032057600080fd5b806301ffc9a71462000236578063029996b814620002625780630472e00a146200026e5780630b885ac31462000285575b600080fd5b6200024d6200024736600462002909565b620005a8565b60405190151581526020015b60405180910390f35b6200026c620005d6565b005b6200026c6200027f366004620029f6565b6200062e565b6200026c6200029636600462002a6e565b6200085d565b620002c8620002ad36600462002842565b60ce602052600090815260409020546001600160a01b031681565b6040516001600160a01b03909116815260200162000259565b62000307620002f236600462002842565b60009081526065602052604090206001015490565b60405190815260200162000259565b6200030762000873565b6200026c620003313660046200279a565b620008be565b620002c8620003483660046200277a565b60cf602052600090815260409020546001600160a01b031681565b60ca54620002c8906001600160a01b031681565b6200026c620003883660046200285c565b62000987565b6200026c6200039f3660046200285c565b620009ad565b6200024d620003b636600462002953565b620009d3565b6200030760cc5481565b62000307600080516020620052b083398151915281565b6200026c620003ee366004620027e0565b62000a30565b6200041b6040518060400160405280600781526020016613585a5b9b995d60ca1b81525081565b60405162000259919062002d8f565b60c954620002c8906001600160a01b031681565b6200026c6200044f36600462002a6e565b62000c1e565b60cd54620002c8906001600160a01b031681565b60cb54620002c8906001600160a01b031681565b620002c86200048e36600462002884565b62000df4565b620002c8620004a5366004620028e6565b62000fe7565b6200024d620004bc3660046200285c565b62001008565b62000307600081565b6200026c62001033565b6200026c620004e636600462002953565b6200107c565b62000307620004fd36600462002842565b6200119a565b6200026c6200051436600462002999565b620011b3565b620003077ffda70c2cc66a36c14884ee85424961f51b1d92b4494751699b6d105b3bcbcba881565b6200026c620005533660046200285c565b6200133a565b60cd546200024d90600160a01b900460ff1681565b6200026c6200057f3660046200277a565b62001346565b62000307620005963660046200277a565b60d06020526000908152604090205481565b60006001600160e01b03198216635a05180f60e01b1480620005d05750620005d08262001462565b92915050565b620005f1600080516020620052b08339815191523362001008565b620006195760405162461bcd60e51b8152600401620006109062002dcd565b60405180910390fd5b60cd805460ff60a01b1916600160a01b179055565b84848080601f01602080910402602001604051908101604052809392919081815260200183838082843760009201829052506040518794509092506200067a9150849060200162002cc3565b60408051601f1981840301815282825280516020918201208383018352600784526613585a5b9b995d60ca1b848301529151919350620006bc92910162002cc3565b604051602081830303815290604052805190602001208114156200073c5760405162461bcd60e51b815260206004820152603060248201527f546869732066756e6374696f6e206973206e6f7420666f72207472616e73666560448201526f1c9c9a5b99c81d1bc813585a5b9b995d60821b606482015260840162000610565b6001600160a01b038216620007945760405162461bcd60e51b815260206004820152601a60248201527f496e636f72726563742072656365697665722061646472657373000000000000604482015260640162000610565b600081815260ce60205260409020546001600160a01b0316620007fa5760405162461bcd60e51b815260206004820152601f60248201527f496e636f727265637420546f6b656e204d616e61676572206164647265737300604482015260640162000610565b600088886040516020016200081192919062002cb3565b60408051601f198184030181529181528151602092830120600081815260ce909352912054909150620008529082906001600160a01b031689898962001499565b505050505050505050565b6200086c858585858562000c1e565b5050505050565b6040518060400160405280600781526020016613585a5b9b995d60ca1b815250604051602001620008a5919062002cc3565b6040516020818303038152906040528051906020012081565b60cb546040516311be333d60e11b81526001600160a01b0384811660048301529091169063237c667a90602401600060405180830381600087803b1580156200090657600080fd5b505af11580156200091b573d6000803e3d6000fd5b50505050620009826040518060400160405280600781526020016613585a5b9b995d60ca1b81525060405160200162000955919062002cc3565b60408051601f19818403018152919052805160209091012060cd546001600160a01b031685858562001499565b505050565b62000993828262001852565b60008281526097602052604090206200098290826200187c565b620009b9828262001893565b600082815260976020526040902062000982908262001915565b6000806001600160a01b031660ce60008585604051602001620009f892919062002cb3565b60408051808303601f19018152918152815160209283012083529082019290925201600020546001600160a01b031614159392505050565b62000a5c7ffda70c2cc66a36c14884ee85424961f51b1d92b4494751699b6d105b3bcbcba83362001008565b62000aaa5760405162461bcd60e51b815260206004820181905260248201527f544f4b454e5f5245474953545241525f524f4c45206973207265717569726564604482015260640162000610565b6001600160a01b0381163b62000b035760405162461bcd60e51b815260206004820152601f60248201527f476976656e2061646472657373206973206e6f74206120636f6e747261637400604482015260640162000610565b806001600160a01b03166318160ddd6040518163ffffffff1660e01b815260040160206040518083038186803b15801562000b3d57600080fd5b505afa15801562000b52573d6000803e3d6000fd5b505050506040513d601f19601f8201168201806040525081019062000b78919062002c6b565b1562000bc75760405162461bcd60e51b815260206004820152601760248201527f546f74616c537570706c79206973206e6f74207a65726f000000000000000000604482015260640162000610565b6001600160a01b03828116600081815260cf602052604080822080546001600160a01b0319169486169485179055517fc6e93524baaa4770b94da082aa0caeac9ba78c87f7edc7c3d2820f2e9fdf400a9190a35050565b600054610100900460ff168062000c38575060005460ff16155b62000c575760405162461bcd60e51b8152600401620006109062002e0e565b600054610100900460ff1615801562000c7a576000805461ffff19166101011790555b6001600160a01b03821662000cd25760405162461bcd60e51b815260206004820181905260248201527f4465706f736974426f7820616464726573732068617320746f20626520736574604482015260640162000610565b62000cdc6200192c565b62000ce9600033620019c6565b62000d04600080516020620052b083398151915233620019c6565b62000d307ffda70c2cc66a36c14884ee85424961f51b1d92b4494751699b6d105b3bcbcba833620019c6565b8560405160200162000d43919062002cc3565b60408051601f19818403018152828252805160209182012060cc5560c980546001600160a01b038a81166001600160a01b03199283161790925560ca80548a841690831617905560cb805489841690831617905560cd8054928816929091168217905560008452908301527fc968af77923193016f61d74ba6827296db5e1f37ec4fab3ad1ef20e193395e59910160405180910390a1801562000dec576000805461ff00191690555b505050505050565b60c9546000906001600160a01b0316331462000e535760405162461bcd60e51b815260206004820152601c60248201527f53656e646572206973206e6f742061204d65737361676550726f787900000000604482015260640162000610565b848460cc54821415801562000ee757506040518060400160405280600781526020016613585a5b9b995d60ca1b81525060405160200162000e95919062002cc3565b60405160208183030381529060405280519060200120821462000ed557600082815260ce60205260409020546001600160a01b0382811691161462000ee7565b60cd546001600160a01b038281169116145b62000f355760405162461bcd60e51b815260206004820152601b60248201527f526563656976657220636861696e20697320696e636f72726563740000000000604482015260640162000610565b600062000f438686620019d2565b90506000600482600c81111562000f5e5762000f5e62002fee565b148062000f7f5750600382600c81111562000f7d5762000f7d62002fee565b145b1562000f995762000f91878762001a26565b905062000fdb565b60405162461bcd60e51b815260206004820152601660248201527526b2b9b9b0b3b2aa3cb8329034b9903ab735b737bbb760511b604482015260640162000610565b98975050505050505050565b600082815260976020526040812062001001908362001dfc565b9392505050565b60009182526065602090815260408084206001600160a01b0393909316845291905290205460ff1690565b6200104e600080516020620052b08339815191523362001008565b6200106d5760405162461bcd60e51b8152600401620006109062002dcd565b60cd805460ff60a01b19169055565b60ca546001600160a01b03163314806200109e57506200109e60003362001008565b620010e45760405162461bcd60e51b81526020600482015260156024820152742737ba1030baba3437b934bd32b21031b0b63632b960591b604482015260640162000610565b60008282604051602001620010fb92919062002cb3565b60408051601f198184030181529181528151602092830120600081815260ce9093529120549091506001600160a01b03166200117a5760405162461bcd60e51b815260206004820152601860248201527f546f6b656e204d616e61676572206973206e6f74207365740000000000000000604482015260640162000610565b600090815260ce6020526040902080546001600160a01b03191690555050565b6000818152609760205260408120620005d09062001e0a565b60ca546001600160a01b0316331480620011d55750620011d560003362001008565b6200121b5760405162461bcd60e51b81526020600482015260156024820152742737ba1030baba3437b934bd32b21031b0b63632b960591b604482015260640162000610565b600083836040516020016200123292919062002cb3565b60408051601f198184030181529181528151602092830120600081815260ce9093529120549091506001600160a01b031615620012b25760405162461bcd60e51b815260206004820152601c60248201527f546f6b656e204d616e6167657220697320616c72656164792073657400000000604482015260640162000610565b6001600160a01b0382166200130a5760405162461bcd60e51b815260206004820152601f60248201527f496e636f727265637420546f6b656e204d616e61676572206164647265737300604482015260640162000610565b600090815260ce6020526040902080546001600160a01b0319166001600160a01b03929092169190911790555050565b620009b9828262001e15565b6200135360003362001008565b620013a15760405162461bcd60e51b815260206004820152601e60248201527f44454641554c545f41444d494e5f524f4c452069732072657175697265640000604482015260640162000610565b6001600160a01b038116620013f95760405162461bcd60e51b815260206004820181905260248201527f4465706f736974426f7820616464726573732068617320746f20626520736574604482015260640162000610565b60cd54604080516001600160a01b03928316815291831660208301527fc968af77923193016f61d74ba6827296db5e1f37ec4fab3ad1ef20e193395e59910160405180910390a160cd80546001600160a01b0319166001600160a01b0392909216919091179055565b60006001600160e01b03198216637965db0b60e01b1480620005d057506301ffc9a760e01b6001600160e01b0319831614620005d0565b6001600160a01b03838116600090815260cf602052604090205416803b620015045760405162461bcd60e51b815260206004820152601860248201527f4e6f20746f6b656e20636c6f6e65206f6e2073636861696e0000000000000000604482015260640162000610565b6040516370a0823160e01b815233600482015282906001600160a01b038316906370a082319060240160206040518083038186803b1580156200154657600080fd5b505afa1580156200155b573d6000803e3d6000fd5b505050506040513d601f19601f8201168201806040525081019062001581919062002c6b565b1015620015c65760405162461bcd60e51b8152602060048201526012602482015271496e73756666696369656e742066756e647360701b604482015260640162000610565b604051636eb1769f60e11b815233600482015230602482015282906001600160a01b0383169063dd62ed3e9060440160206040518083038186803b1580156200160e57600080fd5b505afa15801562001623573d6000803e3d6000fd5b505050506040513d601f19601f8201168201806040525081019062001649919062002c6b565b1015620016aa5760405162461bcd60e51b815260206004820152602860248201527f5472616e73666572206973206e6f7420617070726f76656420627920746f6b6560448201526737103437b63232b960c11b606482015260840162000610565b6040516323b872dd60e01b8152336004820152306024820152604481018390526001600160a01b038216906323b872dd90606401602060405180830381600087803b158015620016f957600080fd5b505af11580156200170e573d6000803e3d6000fd5b505050506040513d601f19601f820116820180604052508101906200173491906200281e565b620017785760405162461bcd60e51b8152602060048201526013602482015272151c985b9cd9995c881dd85cc819985a5b1959606a1b604482015260640162000610565b604051630852cd8d60e31b8152600481018390526001600160a01b038216906342966c6890602401600060405180830381600087803b158015620017bb57600080fd5b505af1158015620017d0573d6000803e3d6000fd5b505060c9546001600160a01b03169150639448920290508787620017f688888862001e3f565b6040518463ffffffff1660e01b8152600401620018169392919062002d5a565b600060405180830381600087803b1580156200183157600080fd5b505af115801562001846573d6000803e3d6000fd5b50505050505050505050565b60008281526065602052604090206001015462001870813362001ea0565b62000982838362001f0f565b600062001001836001600160a01b03841662001f99565b6001600160a01b0381163314620019055760405162461bcd60e51b815260206004820152602f60248201527f416363657373436f6e74726f6c3a2063616e206f6e6c792072656e6f756e636560448201526e103937b632b9903337b91039b2b63360891b606482015260840162000610565b62001911828262001feb565b5050565b600062001001836001600160a01b03841662002055565b600054610100900460ff168062001946575060005460ff16155b620019655760405162461bcd60e51b8152600401620006109062002e0e565b600054610100900460ff1615801562001988576000805461ffff19166101011790555b6200199262002159565b6200199c62002159565b620019a662002159565b620019b062002159565b8015620019c3576000805461ff00191690555b50565b620009938282620021c9565b600080620019e38385018562002842565b9050620019f260208262002fb5565b62001a185762001a0f62001a098483818862002ee5565b620019d2565b915050620005d0565b62001a0f8385018562002935565b60008062001a358484620019d2565b9050600080808080600386600c81111562001a545762001a5462002fee565b141562001ab257600062001a698a8a620021d5565b8051604080820151602080840151606090940151948101516001600160a01b03808616600090815260cf9093529390912054919a5092985092965090945016915062001c0b9050565b600062001ac08a8a620022b0565b8051604080820151602080840151606090940151818601516001600160a01b03808716600090815260cf9094529490922054929b5093995092975091955016925090508162001c095760cd54600160a01b900460ff1662001b645760405162461bcd60e51b815260206004820152601c60248201527f4175746f6d61746963206465706c6f792069732064697361626c656400000000604482015260640162000610565b80604001516000015181604001516040015160405162001b8490620025b9565b62001b9192919062002da4565b604051809103906000f08015801562001bae573d6000803e3d6000fd5b506001600160a01b03868116600081815260cf602052604080822080546001600160a01b031916948616948517905551939550919290917fcdae5f6ddbda7847ad809fcd087e35946ef42729ff7ecdbcc81a03eb3a52ab2891a35b505b6001600160a01b038116600090815260d06020526040902054821462001c47576001600160a01b038116600090815260d0602052604090208290555b60008062001cca836001600160a01b03166318160ddd6040518163ffffffff1660e01b815260040160206040518083038186803b15801562001c8857600080fd5b505afa15801562001c9d573d6000803e3d6000fd5b505050506040513d601f19601f8201168201806040525081019062001cc3919062002c6b565b86620023a7565b909250905081801562001cf557506001600160a01b038316600090815260d060205260409020548111155b62001d3b5760405162461bcd60e51b8152602060048201526015602482015274151bdd185b081cdd5c1c1b1e48195e18d959591959605a1b604482015260640162000610565b6040516340c10f1960e01b81526001600160a01b038881166004830152602482018790528416906340c10f1990604401600060405180830381600087803b15801562001d8657600080fd5b505af115801562001d9b573d6000803e3d6000fd5b50505050826001600160a01b0316866001600160a01b03167f3799680c99183658e109873f9f352e8f136e8ef04c1963b80064ff525c2d4d898760405162001de591815260200190565b60405180910390a350949998505050505050505050565b6000620010018383620023d2565b6000620005d0825490565b60008281526065602052604090206001015462001e33813362001ea0565b62000982838362001feb565b6040805160a08101825260026080820190815281526001600160a01b03808616602080840191909152908516828401526060808301859052925162001e879183910162002e5c565b6040516020818303038152906040529150509392505050565b62001eac828262001008565b620019115762001ec7816001600160a01b03166014620023ff565b62001ed4836020620023ff565b60405160200162001ee792919062002ce1565b60408051601f198184030181529082905262461bcd60e51b8252620006109160040162002d8f565b62001f1b828262001008565b620019115760008281526065602090815260408083206001600160a01b03851684529091529020805460ff1916600117905562001f553390565b6001600160a01b0316816001600160a01b0316837f2f8788117e7eff1d82e926ec794901d17c78024a50270940304540a733656f0d60405160405180910390a45050565b600081815260018301602052604081205462001fe257508154600181810184556000848152602080822090930184905584548482528286019093526040902091909155620005d0565b506000620005d0565b62001ff7828262001008565b15620019115760008281526065602090815260408083206001600160a01b0385168085529252808320805460ff1916905551339285917ff6391f5c32d9c69d2a47ea670b442974b53935d1edc7fd64eb21e047a839171b9190a45050565b600081815260018301602052604081205480156200214e5760006200207c60018362002f4e565b8554909150600090620020929060019062002f4e565b9050818114620020fe576000866000018281548110620020b657620020b66200301a565b9060005260206000200154905080876000018481548110620020dc57620020dc6200301a565b6000918252602080832090910192909255918252600188019052604090208390555b855486908062002112576200211262003004565b600190038181906000526020600020016000905590558560010160008681526020019081526020016000206000905560019350505050620005d0565b6000915050620005d0565b600054610100900460ff168062002173575060005460ff16155b620021925760405162461bcd60e51b8152600401620006109062002e0e565b600054610100900460ff16158015620019b0576000805461ffff19166101011790558015620019c3576000805461ff001916905550565b62001911828262001f0f565b620022156040805160e081018252600060c08201818152928201928352606082018190526080820181905260a08201529081908152602001600081525090565b6003620022238484620019d2565b600c81111562002237576200223762002fee565b14620022a25760405162461bcd60e51b815260206004820152603360248201527f4d6573736167652074797065206973206e6f74204552433230207472616e7366604482015272657220616e6420746f74616c20737570706c7960681b606482015260840162000610565b620010018284018462002c0f565b6200230d6040805161010081018252600060e0820181815260608084019182526080840183905260a0840183905260c084018390529083526020808401839052845180830186528281529081019290925281840152909182015290565b60046200231b8484620019d2565b600c8111156200232f576200232f62002fee565b14620023995760405162461bcd60e51b815260206004820152603260248201527f4d6573736167652074797065206973206e6f74204552433230207472616e73666044820152716572207769746820746f6b656e20696e666f60701b606482015260840162000610565b620010018284018462002b04565b60008083830184811015620023c4576000809250925050620023cb565b6001925090505b9250929050565b6000826000018281548110620023ec57620023ec6200301a565b9060005260206000200154905092915050565b606060006200241083600262002f2c565b6200241d90600262002f11565b67ffffffffffffffff81111562002438576200243862003030565b6040519080825280601f01601f19166020018201604052801562002463576020820181803683370190505b509050600360fc1b816000815181106200248157620024816200301a565b60200101906001600160f81b031916908160001a905350600f60fb1b81600181518110620024b357620024b36200301a565b60200101906001600160f81b031916908160001a9053506000620024d984600262002f2c565b620024e690600162002f11565b90505b600181111562002568576f181899199a1a9b1b9c1cb0b131b232b360811b85600f16601081106200251e576200251e6200301a565b1a60f81b8282815181106200253757620025376200301a565b60200101906001600160f81b031916908160001a90535060049490941c93620025608162002f9b565b9050620024e9565b508315620010015760405162461bcd60e51b815260206004820181905260248201527f537472696e67733a20686578206c656e67746820696e73756666696369656e74604482015260640162000610565b612253806200305d83390190565b60008083601f840112620025da57600080fd5b50813567ffffffffffffffff811115620025f357600080fd5b602083019150836020828501011115620023cb57600080fd5b8035600d81106200261c57600080fd5b919050565b600082601f8301126200263357600080fd5b813567ffffffffffffffff8082111562002651576200265162003030565b604051601f8301601f19908116603f011681019082821181831017156200267c576200267c62003030565b816040528381528660208588010111156200269657600080fd5b836020870160208301376000602085830101528094505050505092915050565b60008183036080811215620026ca57600080fd5b6040516080810167ffffffffffffffff8282108183111715620026f157620026f162003030565b8160405282945060208412156200270757600080fd5b60a083019350818410818511171562002724576200272462003030565b508260405262002734856200260c565b81528152602084013591506200274a8262003046565b81602082015260408401359150620027628262003046565b81604082015260608401356060820152505092915050565b6000602082840312156200278d57600080fd5b8135620010018162003046565b600080600060608486031215620027b057600080fd5b8335620027bd8162003046565b92506020840135620027cf8162003046565b929592945050506040919091013590565b60008060408385031215620027f457600080fd5b8235620028018162003046565b91506020830135620028138162003046565b809150509250929050565b6000602082840312156200283157600080fd5b815180151581146200100157600080fd5b6000602082840312156200285557600080fd5b5035919050565b600080604083850312156200287057600080fd5b823591506020830135620028138162003046565b600080600080606085870312156200289b57600080fd5b843593506020850135620028af8162003046565b9250604085013567ffffffffffffffff811115620028cc57600080fd5b620028da87828801620025c7565b95989497509550505050565b60008060408385031215620028fa57600080fd5b50508035926020909101359150565b6000602082840312156200291c57600080fd5b81356001600160e01b0319811681146200100157600080fd5b6000602082840312156200294857600080fd5b62001001826200260c565b600080602083850312156200296757600080fd5b823567ffffffffffffffff8111156200297f57600080fd5b6200298d85828601620025c7565b90969095509350505050565b600080600060408486031215620029af57600080fd5b833567ffffffffffffffff811115620029c757600080fd5b620029d586828701620025c7565b9094509250506020840135620029eb8162003046565b809150509250925092565b60008060008060006080868803121562002a0f57600080fd5b853567ffffffffffffffff81111562002a2757600080fd5b62002a3588828901620025c7565b909650945050602086013562002a4b8162003046565b9250604086013562002a5d8162003046565b949793965091946060013592915050565b600080600080600060a0868803121562002a8757600080fd5b853567ffffffffffffffff81111562002a9f57600080fd5b62002aad8882890162002621565b955050602086013562002ac08162003046565b9350604086013562002ad28162003046565b9250606086013562002ae48162003046565b9150608086013562002af68162003046565b809150509295509295909350565b60006020828403121562002b1757600080fd5b813567ffffffffffffffff8082111562002b3057600080fd5b9083019060c0828603121562002b4557600080fd5b62002b4f62002eb9565b62002b5b8684620026b6565b81526080830135602082015260a08301358281111562002b7a57600080fd5b92909201916060838703121562002b9057600080fd5b62002b9a62002eb9565b83358381111562002baa57600080fd5b62002bb88882870162002621565b825250602084013560ff8116811462002bd057600080fd5b602082015260408401358381111562002be857600080fd5b62002bf68882870162002621565b6040830152508060408301525080935050505092915050565b600060a0828403121562002c2257600080fd5b6040516040810181811067ffffffffffffffff8211171562002c485762002c4862003030565b60405262002c578484620026b6565b815260809290920135602083015250919050565b60006020828403121562002c7e57600080fd5b5051919050565b6000815180845262002c9f81602086016020860162002f68565b601f01601f19169290920160200192915050565b8183823760009101908152919050565b6000825162002cd781846020870162002f68565b9190910192915050565b7f416363657373436f6e74726f6c3a206163636f756e742000000000000000000081526000835162002d1b81601785016020880162002f68565b7001034b99036b4b9b9b4b733903937b6329607d1b601791840191820152835162002d4e81602884016020880162002f68565b01602801949350505050565b8381526001600160a01b038316602082015260606040820181905260009062002d869083018462002c85565b95945050505050565b60208152600062001001602083018462002c85565b60408152600062002db9604083018562002c85565b828103602084015262002d86818562002c85565b60208082526021908201527f4155544f4d415449435f4445504c4f595f524f4c4520697320726571756972656040820152601960fa1b606082015260800190565b6020808252602e908201527f496e697469616c697a61626c653a20636f6e747261637420697320616c72656160408201526d191e481a5b9a5d1a585b1a5e995960921b606082015260800190565b8151516080820190600d811062002e8357634e487b7160e01b600052602160045260246000fd5b80835250602083015160018060a01b03808216602085015280604086015116604085015250506060830151606083015292915050565b6040516060810167ffffffffffffffff8111828210171562002edf5762002edf62003030565b60405290565b6000808585111562002ef657600080fd5b8386111562002f0457600080fd5b5050820193919092039150565b6000821982111562002f275762002f2762002fd8565b500190565b600081600019048311821515161562002f495762002f4962002fd8565b500290565b60008282101562002f635762002f6362002fd8565b500390565b60005b8381101562002f8557818101518382015260200162002f6b565b8381111562002f95576000848401525b50505050565b60008162002fad5762002fad62002fd8565b506000190190565b60008262002fd357634e487b7160e01b600052601260045260246000fd5b500690565b634e487b7160e01b600052601160045260246000fd5b634e487b7160e01b600052602160045260246000fd5b634e487b7160e01b600052603160045260246000fd5b634e487b7160e01b600052603260045260246000fd5b634e487b7160e01b600052604160045260246000fd5b6001600160a01b0381168114620019c357600080fdfe60806040523480156200001157600080fd5b506040516200225338038062002253833981016040819052620000349162000812565b600054610100900460ff16806200004e575060005460ff16155b620000a65760405162461bcd60e51b815260206004820152602e60248201526000805160206200221383398151915260448201526d191e481a5b9a5d1a585b1a5e995960921b60648201526084015b60405180910390fd5b600054610100900460ff16158015620000c9576000805461ffff19166101011790555b620000de6200015c60201b620007cd1760201c565b620000f583836200022b60201b620008581760201c565b6200010a620002ea60201b620008d71760201c565b62000125600080516020620022338339815191528062000384565b620001406000805160206200223383398151915233620003d8565b801562000153576000805461ff00191690555b505050620008cf565b600054610100900460ff168062000176575060005460ff16155b620001ca5760405162461bcd60e51b815260206004820152602e60248201526000805160206200221383398151915260448201526d191e481a5b9a5d1a585b1a5e995960921b60648201526084016200009d565b600054610100900460ff16158015620001ed576000805461ffff19166101011790555b620001f762000416565b6200020162000416565b6200020b62000416565b6200021562000416565b801562000228576000805461ff00191690555b50565b600054610100900460ff168062000245575060005460ff16155b620002995760405162461bcd60e51b815260206004820152602e60248201526000805160206200221383398151915260448201526d191e481a5b9a5d1a585b1a5e995960921b60648201526084016200009d565b600054610100900460ff16158015620002bc576000805461ffff19166101011790555b620002c662000416565b620002d28383620004bb565b8015620002e5576000805461ff00191690555b505050565b600054610100900460ff168062000304575060005460ff16155b620003585760405162461bcd60e51b815260206004820152602e60248201526000805160206200221383398151915260448201526d191e481a5b9a5d1a585b1a5e995960921b60648201526084016200009d565b600054610100900460ff1615801562000201576000805461ffff19166101011790556200020b62000416565b600082815260656020526040902060010154819060405184907fbd79b86ffe0ab8e8776151514217cd7cacd52c909f66475c3af44e129f0b00ff90600090a460009182526065602052604090912060010155565b620003ef82826200058f60201b620009351760201c565b6000828152609760209081526040909120620002e59183906200093f6200059f821b17901c565b600054610100900460ff168062000430575060005460ff16155b620004845760405162461bcd60e51b815260206004820152602e60248201526000805160206200221383398151915260448201526d191e481a5b9a5d1a585b1a5e995960921b60648201526084016200009d565b600054610100900460ff1615801562000215576000805461ffff1916610101179055801562000228576000805461ff001916905550565b600054610100900460ff1680620004d5575060005460ff16155b620005295760405162461bcd60e51b815260206004820152602e60248201526000805160206200221383398151915260448201526d191e481a5b9a5d1a585b1a5e995960921b60648201526084016200009d565b600054610100900460ff161580156200054c576000805461ffff19166101011790555b8251620005619060cc906020860190620006b5565b508151620005779060cd906020850190620006b5565b508015620002e5576000805461ff0019169055505050565b6200059b8282620005bf565b5050565b6000620005b6836001600160a01b03841662000663565b90505b92915050565b60008281526065602090815260408083206001600160a01b038516845290915290205460ff166200059b5760008281526065602090815260408083206001600160a01b03851684529091529020805460ff191660011790556200061f3390565b6001600160a01b0316816001600160a01b0316837f2f8788117e7eff1d82e926ec794901d17c78024a50270940304540a733656f0d60405160405180910390a45050565b6000818152600183016020526040812054620006ac57508154600181810184556000848152602080822090930184905584548482528286019093526040902091909155620005b9565b506000620005b9565b828054620006c3906200087c565b90600052602060002090601f016020900481019282620006e7576000855562000732565b82601f106200070257805160ff191683800117855562000732565b8280016001018555821562000732579182015b828111156200073257825182559160200191906001019062000715565b506200074092915062000744565b5090565b5b8082111562000740576000815560010162000745565b600082601f8301126200076d57600080fd5b81516001600160401b03808211156200078a576200078a620008b9565b604051601f8301601f19908116603f01168101908282118183101715620007b557620007b5620008b9565b81604052838152602092508683858801011115620007d257600080fd5b600091505b83821015620007f65785820183015181830184015290820190620007d7565b83821115620008085760008385830101525b9695505050505050565b600080604083850312156200082657600080fd5b82516001600160401b03808211156200083e57600080fd5b6200084c868387016200075b565b935060208501519150808211156200086357600080fd5b5062000872858286016200075b565b9150509250929050565b600181811c908216806200089157607f821691505b60208210811415620008b357634e487b7160e01b600052602260045260246000fd5b50919050565b634e487b7160e01b600052604160045260246000fd5b61193480620008df6000396000f3fe608060405234801561001057600080fd5b50600436106101585760003560e01c806370a08231116100c3578063a457c2d71161007c578063a457c2d7146102ef578063a9059cbb14610302578063ca15c87314610315578063d539139314610328578063d547741f1461034f578063dd62ed3e1461036257600080fd5b806370a082311461026557806379cc67901461028e5780639010d07c146102a157806391d14854146102cc57806395d89b41146102df578063a217fddf146102e757600080fd5b80632f2ff15d116101155780632f2ff15d146101f5578063313ce5671461020a57806336568abe14610219578063395093511461022c57806340c10f191461023f57806342966c681461025257600080fd5b806301ffc9a71461015d57806306fdde0314610185578063095ea7b31461019a57806318160ddd146101ad57806323b872dd146101bf578063248a9ca3146101d2575b600080fd5b61017061016b3660046116ba565b61039b565b60405190151581526020015b60405180910390f35b61018d6103c6565b60405161017c9190611759565b6101706101a8366004611632565b610458565b60cb545b60405190815260200161017c565b6101706101cd3660046115f6565b61046e565b6101b16101e036600461165c565b60009081526065602052604090206001015490565b610208610203366004611675565b61051d565b005b6040516012815260200161017c565b610208610227366004611675565b610544565b61017061023a366004611632565b610566565b61020861024d366004611632565b6105a2565b61020861026036600461165c565b61061f565b6101b16102733660046115a8565b6001600160a01b0316600090815260c9602052604090205490565b61020861029c366004611632565b61062c565b6102b46102af366004611698565b6106ad565b6040516001600160a01b03909116815260200161017c565b6101706102da366004611675565b6106cc565b61018d6106f7565b6101b1600081565b6101706102fd366004611632565b610706565b610170610310366004611632565b61079f565b6101b161032336600461165c565b6107ac565b6101b17f9f2df0fed2c77648de5860a4cc508cd0818c85b8b8a1ab4ceeef8d981c8956a681565b61020861035d366004611675565b6107c3565b6101b16103703660046115c3565b6001600160a01b03918216600090815260ca6020908152604080832093909416825291909152205490565b60006001600160e01b03198216635a05180f60e01b14806103c057506103c082610954565b92915050565b606060cc80546103d59061186b565b80601f01602080910402602001604051908101604052809291908181526020018280546104019061186b565b801561044e5780601f106104235761010080835404028352916020019161044e565b820191906000526020600020905b81548152906001019060200180831161043157829003601f168201915b5050505050905090565b6000610465338484610989565b50600192915050565b600061047b848484610aad565b6001600160a01b038416600090815260ca60209081526040808320338452909152902054828110156105055760405162461bcd60e51b815260206004820152602860248201527f45524332303a207472616e7366657220616d6f756e74206578636565647320616044820152676c6c6f77616e636560c01b60648201526084015b60405180910390fd5b6105128533858403610989565b506001949350505050565b6105278282610c7d565b600082815260976020526040902061053f908261093f565b505050565b61054e8282610ca3565b600082815260976020526040902061053f9082610d1d565b33600081815260ca602090815260408083206001600160a01b0387168452909152812054909161046591859061059d9086906117da565b610989565b6105cc7f9f2df0fed2c77648de5860a4cc508cd0818c85b8b8a1ab4ceeef8d981c8956a6336106cc565b6106115760405162461bcd60e51b815260206004820152601660248201527529b2b73232b91034b9903737ba10309026b4b73a32b960511b60448201526064016104fc565b61061b8282610d32565b5050565b6106293382610e11565b50565b60006106388333610370565b9050818110156106965760405162461bcd60e51b8152602060048201526024808201527f45524332303a206275726e20616d6f756e74206578636565647320616c6c6f77604482015263616e636560e01b60648201526084016104fc565b6106a38333848403610989565b61053f8383610e11565b60008281526097602052604081206106c59083610f5f565b9392505050565b60009182526065602090815260408084206001600160a01b0393909316845291905290205460ff1690565b606060cd80546103d59061186b565b33600090815260ca602090815260408083206001600160a01b0386168452909152812054828110156107885760405162461bcd60e51b815260206004820152602560248201527f45524332303a2064656372656173656420616c6c6f77616e63652062656c6f77604482015264207a65726f60d81b60648201526084016104fc565b6107953385858403610989565b5060019392505050565b6000610465338484610aad565b60008181526097602052604081206103c090610f6b565b61054e8282610f75565b600054610100900460ff16806107e6575060005460ff16155b6108025760405162461bcd60e51b81526004016104fc9061178c565b600054610100900460ff16158015610824576000805461ffff19166101011790555b61082c610f9b565b610834610f9b565b61083c610f9b565b610844610f9b565b8015610629576000805461ff001916905550565b600054610100900460ff1680610871575060005460ff16155b61088d5760405162461bcd60e51b81526004016104fc9061178c565b600054610100900460ff161580156108af576000805461ffff19166101011790555b6108b7610f9b565b6108c18383611005565b801561053f576000805461ff0019169055505050565b600054610100900460ff16806108f0575060005460ff16155b61090c5760405162461bcd60e51b81526004016104fc9061178c565b600054610100900460ff16158015610834576000805461ffff191661010117905561083c610f9b565b61061b828261109a565b60006106c5836001600160a01b038416611120565b60006001600160e01b03198216637965db0b60e01b14806103c057506301ffc9a760e01b6001600160e01b03198316146103c0565b6001600160a01b0383166109eb5760405162461bcd60e51b8152602060048201526024808201527f45524332303a20617070726f76652066726f6d20746865207a65726f206164646044820152637265737360e01b60648201526084016104fc565b6001600160a01b038216610a4c5760405162461bcd60e51b815260206004820152602260248201527f45524332303a20617070726f766520746f20746865207a65726f206164647265604482015261737360f01b60648201526084016104fc565b6001600160a01b03838116600081815260ca602090815260408083209487168084529482529182902085905590518481527f8c5be1e5ebec7d5bd14f71427d1e84f3dd0314c0f7b2291e5b200ac8c7c3b925910160405180910390a3505050565b6001600160a01b038316610b115760405162461bcd60e51b815260206004820152602560248201527f45524332303a207472616e736665722066726f6d20746865207a65726f206164604482015264647265737360d81b60648201526084016104fc565b6001600160a01b038216610b735760405162461bcd60e51b815260206004820152602360248201527f45524332303a207472616e7366657220746f20746865207a65726f206164647260448201526265737360e81b60648201526084016104fc565b6001600160a01b038316600090815260c9602052604090205481811015610beb5760405162461bcd60e51b815260206004820152602660248201527f45524332303a207472616e7366657220616d6f756e7420657863656564732062604482015265616c616e636560d01b60648201526084016104fc565b6001600160a01b03808516600090815260c96020526040808220858503905591851681529081208054849290610c229084906117da565b92505081905550826001600160a01b0316846001600160a01b03167fddf252ad1be2c89b69c2b068fc378daa952ba7f163c4a11628f55a4df523b3ef84604051610c6e91815260200190565b60405180910390a35b50505050565b600082815260656020526040902060010154610c99813361116f565b61053f838361109a565b6001600160a01b0381163314610d135760405162461bcd60e51b815260206004820152602f60248201527f416363657373436f6e74726f6c3a2063616e206f6e6c792072656e6f756e636560448201526e103937b632b9903337b91039b2b63360891b60648201526084016104fc565b61061b82826111d3565b60006106c5836001600160a01b03841661123a565b6001600160a01b038216610d885760405162461bcd60e51b815260206004820152601f60248201527f45524332303a206d696e7420746f20746865207a65726f20616464726573730060448201526064016104fc565b8060cb6000828254610d9a91906117da565b90915550506001600160a01b038216600090815260c9602052604081208054839290610dc79084906117da565b90915550506040518181526001600160a01b038316906000907fddf252ad1be2c89b69c2b068fc378daa952ba7f163c4a11628f55a4df523b3ef9060200160405180910390a35050565b6001600160a01b038216610e715760405162461bcd60e51b815260206004820152602160248201527f45524332303a206275726e2066726f6d20746865207a65726f206164647265736044820152607360f81b60648201526084016104fc565b6001600160a01b038216600090815260c9602052604090205481811015610ee55760405162461bcd60e51b815260206004820152602260248201527f45524332303a206275726e20616d6f756e7420657863656564732062616c616e604482015261636560f01b60648201526084016104fc565b6001600160a01b038316600090815260c960205260408120838303905560cb8054849290610f14908490611811565b90915550506040518281526000906001600160a01b038516907fddf252ad1be2c89b69c2b068fc378daa952ba7f163c4a11628f55a4df523b3ef9060200160405180910390a3505050565b60006106c5838361132d565b60006103c0825490565b600082815260656020526040902060010154610f91813361116f565b61053f83836111d3565b600054610100900460ff1680610fb4575060005460ff16155b610fd05760405162461bcd60e51b81526004016104fc9061178c565b600054610100900460ff16158015610844576000805461ffff19166101011790558015610629576000805461ff001916905550565b600054610100900460ff168061101e575060005460ff16155b61103a5760405162461bcd60e51b81526004016104fc9061178c565b600054610100900460ff1615801561105c576000805461ffff19166101011790555b825161106f9060cc9060208601906114f3565b5081516110839060cd9060208501906114f3565b50801561053f576000805461ff0019169055505050565b6110a482826106cc565b61061b5760008281526065602090815260408083206001600160a01b03851684529091529020805460ff191660011790556110dc3390565b6001600160a01b0316816001600160a01b0316837f2f8788117e7eff1d82e926ec794901d17c78024a50270940304540a733656f0d60405160405180910390a45050565b6000818152600183016020526040812054611167575081546001818101845560008481526020808220909301849055845484825282860190935260409020919091556103c0565b5060006103c0565b61117982826106cc565b61061b57611191816001600160a01b03166014611357565b61119c836020611357565b6040516020016111ad9291906116e4565b60408051601f198184030181529082905262461bcd60e51b82526104fc91600401611759565b6111dd82826106cc565b1561061b5760008281526065602090815260408083206001600160a01b0385168085529252808320805460ff1916905551339285917ff6391f5c32d9c69d2a47ea670b442974b53935d1edc7fd64eb21e047a839171b9190a45050565b6000818152600183016020526040812054801561132357600061125e600183611811565b855490915060009061127290600190611811565b90508181146112d7576000866000018281548110611292576112926118d2565b90600052602060002001549050808760000184815481106112b5576112b56118d2565b6000918252602080832090910192909255918252600188019052604090208390555b85548690806112e8576112e86118bc565b6001900381819060005260206000200160009055905585600101600086815260200190815260200160002060009055600193505050506103c0565b60009150506103c0565b6000826000018281548110611344576113446118d2565b9060005260206000200154905092915050565b606060006113668360026117f2565b6113719060026117da565b67ffffffffffffffff811115611389576113896118e8565b6040519080825280601f01601f1916602001820160405280156113b3576020820181803683370190505b509050600360fc1b816000815181106113ce576113ce6118d2565b60200101906001600160f81b031916908160001a905350600f60fb1b816001815181106113fd576113fd6118d2565b60200101906001600160f81b031916908160001a90535060006114218460026117f2565b61142c9060016117da565b90505b60018111156114a4576f181899199a1a9b1b9c1cb0b131b232b360811b85600f1660108110611460576114606118d2565b1a60f81b828281518110611476576114766118d2565b60200101906001600160f81b031916908160001a90535060049490941c9361149d81611854565b905061142f565b5083156106c55760405162461bcd60e51b815260206004820181905260248201527f537472696e67733a20686578206c656e67746820696e73756666696369656e7460448201526064016104fc565b8280546114ff9061186b565b90600052602060002090601f0160209004810192826115215760008555611567565b82601f1061153a57805160ff1916838001178555611567565b82800160010185558215611567579182015b8281111561156757825182559160200191906001019061154c565b50611573929150611577565b5090565b5b808211156115735760008155600101611578565b80356001600160a01b03811681146115a357600080fd5b919050565b6000602082840312156115ba57600080fd5b6106c58261158c565b600080604083850312156115d657600080fd5b6115df8361158c565b91506115ed6020840161158c565b90509250929050565b60008060006060848603121561160b57600080fd5b6116148461158c565b92506116226020850161158c565b9150604084013590509250925092565b6000806040838503121561164557600080fd5b61164e8361158c565b946020939093013593505050565b60006020828403121561166e57600080fd5b5035919050565b6000806040838503121561168857600080fd5b823591506115ed6020840161158c565b600080604083850312156116ab57600080fd5b50508035926020909101359150565b6000602082840312156116cc57600080fd5b81356001600160e01b0319811681146106c557600080fd5b7f416363657373436f6e74726f6c3a206163636f756e742000000000000000000081526000835161171c816017850160208801611828565b7001034b99036b4b9b9b4b733903937b6329607d1b601791840191820152835161174d816028840160208801611828565b01602801949350505050565b6020815260008251806020840152611778816040850160208701611828565b601f01601f19169190910160400192915050565b6020808252602e908201527f496e697469616c697a61626c653a20636f6e747261637420697320616c72656160408201526d191e481a5b9a5d1a585b1a5e995960921b606082015260800190565b600082198211156117ed576117ed6118a6565b500190565b600081600019048311821515161561180c5761180c6118a6565b500290565b600082821015611823576118236118a6565b500390565b60005b8381101561184357818101518382015260200161182b565b83811115610c775750506000910152565b600081611863576118636118a6565b506000190190565b600181811c9082168061187f57607f821691505b602082108114156118a057634e487b7160e01b600052602260045260246000fd5b50919050565b634e487b7160e01b600052601160045260246000fd5b634e487b7160e01b600052603160045260246000fd5b634e487b7160e01b600052603260045260246000fd5b634e487b7160e01b600052604160045260246000fdfea26469706673582212201eeae2a1644ab41f8a126fec14713398102f4a59a65f6eadc93d86e1200776e764736f6c63430008060033496e697469616c697a61626c653a20636f6e747261637420697320616c7265619f2df0fed2c77648de5860a4cc508cd0818c85b8b8a1ab4ceeef8d981c8956a67164765a3c8bd2513bdfa0c90f1bee9606e920fbf2c9071f310263fbd818684ba26469706673582212203f51492e0d49d3d7f3056cf353be168c7c491552ab5c966f749cbcf37b38ab4964736f6c63430008060033",
  "linkReferences": {},
  "deployedLinkReferences": {}
}