{
  "_format": "hh-sol-artifact-1",
  "contractName": "TokenManagerERC1155",
  "sourceName": "contracts/schain/TokenManagers/TokenManagerERC1155.sol",
  "abi": [
    {
      "anonymous": false,
      "inputs": [
        {
          "indexed": false,
          "internalType": "address",
          "name": "oldValue",
          "type": "address"
        },
        {
          "indexed": false,
          "internalType": "address",
          "name": "newValue",
          "type": "address"
        }
      ],
      "name": "DepositBoxWasChanged",
      "type": "event"
    },
    {
      "anonymous": false,
      "inputs": [
        {
          "indexed": true,
          "internalType": "address",
          "name": "erc1155OnMainnet",
          "type": "address"
        },
        {
          "indexed": true,
          "internalType": "address",
          "name": "erc1155OnSchain",
          "type": "address"
        }
      ],
      "name": "ERC1155TokenAdded",
      "type": "event"
    },
    {
      "anonymous": false,
      "inputs": [
        {
          "indexed": true,
          "internalType": "address",
          "name": "erc1155OnMainnet",
          "type": "address"
        },
        {
          "indexed": true,
          "internalType": "address",
          "name": "erc1155OnSchain",
          "type": "address"
        }
      ],
      "name": "ERC1155TokenCreated",
      "type": "event"
    },
    {
      "anonymous": false,
      "inputs": [
        {
          "indexed": true,
          "internalType": "address",
          "name": "erc1155OnMainnet",
          "type": "address"
        },
        {
          "indexed": true,
          "internalType": "address",
          "name": "erc1155OnSchain",
          "type": "address"
        },
        {
          "indexed": false,
          "internalType": "uint256[]",
          "name": "ids",
          "type": "uint256[]"
        },
        {
          "indexed": false,
          "internalType": "uint256[]",
          "name": "amounts",
          "type": "uint256[]"
        }
      ],
      "name": "ERC1155TokenReceived",
      "type": "event"
    },
    {
      "anonymous": false,
      "inputs": [
        {
          "indexed": true,
          "internalType": "bytes32",
          "name": "role",
          "type": "bytes32"
        },
        {
          "indexed": true,
          "internalType": "bytes32",
          "name": "previousAdminRole",
          "type": "bytes32"
        },
        {
          "indexed": true,
          "internalType": "bytes32",
          "name": "newAdminRole",
          "type": "bytes32"
        }
      ],
      "name": "RoleAdminChanged",
      "type": "event"
    },
    {
      "anonymous": false,
      "inputs": [
        {
          "indexed": true,
          "internalType": "bytes32",
          "name": "role",
          "type": "bytes32"
        },
        {
          "indexed": true,
          "internalType": "address",
          "name": "account",
          "type": "address"
        },
        {
          "indexed": true,
          "internalType": "address",
          "name": "sender",
          "type": "address"
        }
      ],
      "name": "RoleGranted",
      "type": "event"
    },
    {
      "anonymous": false,
      "inputs": [
        {
          "indexed": true,
          "internalType": "bytes32",
          "name": "role",
          "type": "bytes32"
        },
        {
          "indexed": true,
          "internalType": "address",
          "name": "account",
          "type": "address"
        },
        {
          "indexed": true,
          "internalType": "address",
          "name": "sender",
          "type": "address"
        }
      ],
      "name": "RoleRevoked",
      "type": "event"
    },
    {
      "inputs": [],
      "name": "AUTOMATIC_DEPLOY_ROLE",
      "outputs": [
        {
          "internalType": "bytes32",
          "name": "",
          "type": "bytes32"
        }
      ],
      "stateMutability": "view",
      "type": "function"
    },
    {
      "inputs": [],
      "name": "DEFAULT_ADMIN_ROLE",
      "outputs": [
        {
          "internalType": "bytes32",
          "name": "",
          "type": "bytes32"
        }
      ],
      "stateMutability": "view",
      "type": "function"
    },
    {
      "inputs": [],
      "name": "MAINNET_HASH",
      "outputs": [
        {
          "internalType": "bytes32",
          "name": "",
          "type": "bytes32"
        }
      ],
      "stateMutability": "view",
      "type": "function"
    },
    {
      "inputs": [],
      "name": "MAINNET_NAME",
      "outputs": [
        {
          "internalType": "string",
          "name": "",
          "type": "string"
        }
      ],
      "stateMutability": "view",
      "type": "function"
    },
    {
      "inputs": [],
      "name": "TOKEN_REGISTRAR_ROLE",
      "outputs": [
        {
          "internalType": "bytes32",
          "name": "",
          "type": "bytes32"
        }
      ],
      "stateMutability": "view",
      "type": "function"
    },
    {
      "inputs": [
        {
          "internalType": "address",
          "name": "erc1155OnMainnet",
          "type": "address"
        },
        {
          "internalType": "contract ERC1155OnChain",
          "name": "erc1155OnSchain",
          "type": "address"
        }
      ],
      "name": "addERC1155TokenByOwner",
      "outputs": [],
      "stateMutability": "nonpayable",
      "type": "function"
    },
    {
      "inputs": [
        {
          "internalType": "string",
          "name": "schainName",
          "type": "string"
        },
        {
          "internalType": "address",
          "name": "newTokenManager",
          "type": "address"
        }
      ],
      "name": "addTokenManager",
      "outputs": [],
      "stateMutability": "nonpayable",
      "type": "function"
    },
    {
      "inputs": [],
      "name": "automaticDeploy",
      "outputs": [
        {
          "internalType": "bool",
          "name": "",
          "type": "bool"
        }
      ],
      "stateMutability": "view",
      "type": "function"
    },
    {
      "inputs": [
        {
          "internalType": "address",
          "name": "newDepositBox",
          "type": "address"
        }
      ],
      "name": "changeDepositBoxAddress",
      "outputs": [],
      "stateMutability": "nonpayable",
      "type": "function"
    },
    {
      "inputs": [
        {
          "internalType": "address",
          "name": "",
          "type": "address"
        }
      ],
      "name": "clonesErc1155",
      "outputs": [
        {
          "internalType": "contract ERC1155OnChain",
          "name": "",
          "type": "address"
        }
      ],
      "stateMutability": "view",
      "type": "function"
    },
    {
      "inputs": [],
      "name": "communityLocker",
      "outputs": [
        {
          "internalType": "contract CommunityLocker",
          "name": "",
          "type": "address"
        }
      ],
      "stateMutability": "view",
      "type": "function"
    },
    {
      "inputs": [],
      "name": "depositBox",
      "outputs": [
        {
          "internalType": "address",
          "name": "",
          "type": "address"
        }
      ],
      "stateMutability": "view",
      "type": "function"
    },
    {
      "inputs": [],
      "name": "disableAutomaticDeploy",
      "outputs": [],
      "stateMutability": "nonpayable",
      "type": "function"
    },
    {
      "inputs": [],
      "name": "enableAutomaticDeploy",
      "outputs": [],
      "stateMutability": "nonpayable",
      "type": "function"
    },
    {
      "inputs": [
        {
          "internalType": "address",
          "name": "contractOnMainnet",
          "type": "address"
        },
        {
          "internalType": "address",
          "name": "to",
          "type": "address"
        },
        {
          "internalType": "uint256",
          "name": "id",
          "type": "uint256"
        },
        {
          "internalType": "uint256",
          "name": "amount",
          "type": "uint256"
        }
      ],
      "name": "exitToMainERC1155",
      "outputs": [],
      "stateMutability": "nonpayable",
      "type": "function"
    },
    {
      "inputs": [
        {
          "internalType": "address",
          "name": "contractOnMainnet",
          "type": "address"
        },
        {
          "internalType": "address",
          "name": "to",
          "type": "address"
        },
        {
          "internalType": "uint256[]",
          "name": "ids",
          "type": "uint256[]"
        },
        {
          "internalType": "uint256[]",
          "name": "amounts",
          "type": "uint256[]"
        }
      ],
      "name": "exitToMainERC1155Batch",
      "outputs": [],
      "stateMutability": "nonpayable",
      "type": "function"
    },
    {
      "inputs": [
        {
          "internalType": "bytes32",
          "name": "role",
          "type": "bytes32"
        }
      ],
      "name": "getRoleAdmin",
      "outputs": [
        {
          "internalType": "bytes32",
          "name": "",
          "type": "bytes32"
        }
      ],
      "stateMutability": "view",
      "type": "function"
    },
    {
      "inputs": [
        {
          "internalType": "bytes32",
          "name": "role",
          "type": "bytes32"
        },
        {
          "internalType": "uint256",
          "name": "index",
          "type": "uint256"
        }
      ],
      "name": "getRoleMember",
      "outputs": [
        {
          "internalType": "address",
          "name": "",
          "type": "address"
        }
      ],
      "stateMutability": "view",
      "type": "function"
    },
    {
      "inputs": [
        {
          "internalType": "bytes32",
          "name": "role",
          "type": "bytes32"
        }
      ],
      "name": "getRoleMemberCount",
      "outputs": [
        {
          "internalType": "uint256",
          "name": "",
          "type": "uint256"
        }
      ],
      "stateMutability": "view",
      "type": "function"
    },
    {
      "inputs": [
        {
          "internalType": "bytes32",
          "name": "role",
          "type": "bytes32"
        },
        {
          "internalType": "address",
          "name": "account",
          "type": "address"
        }
      ],
      "name": "grantRole",
      "outputs": [],
      "stateMutability": "nonpayable",
      "type": "function"
    },
    {
      "inputs": [
        {
          "internalType": "bytes32",
          "name": "role",
          "type": "bytes32"
        },
        {
          "internalType": "address",
          "name": "account",
          "type": "address"
        }
      ],
      "name": "hasRole",
      "outputs": [
        {
          "internalType": "bool",
          "name": "",
          "type": "bool"
        }
      ],
      "stateMutability": "view",
      "type": "function"
    },
    {
      "inputs": [
        {
          "internalType": "string",
          "name": "schainName",
          "type": "string"
        }
      ],
      "name": "hasTokenManager",
      "outputs": [
        {
          "internalType": "bool",
          "name": "",
          "type": "bool"
        }
      ],
      "stateMutability": "view",
      "type": "function"
    },
    {
      "inputs": [
        {
          "internalType": "string",
          "name": "newChainName",
          "type": "string"
        },
        {
          "internalType": "contract MessageProxyForSchain",
          "name": "newMessageProxy",
          "type": "address"
        },
        {
          "internalType": "contract TokenManagerLinker",
          "name": "newIMALinker",
          "type": "address"
        },
        {
          "internalType": "contract CommunityLocker",
          "name": "newCommunityLocker",
          "type": "address"
        },
        {
          "internalType": "address",
          "name": "newDepositBox",
          "type": "address"
        }
      ],
      "name": "initialize",
      "outputs": [],
      "stateMutability": "nonpayable",
      "type": "function"
    },
    {
      "inputs": [
        {
          "internalType": "string",
          "name": "newSchainName",
          "type": "string"
        },
        {
          "internalType": "contract MessageProxyForSchain",
          "name": "newMessageProxy",
          "type": "address"
        },
        {
          "internalType": "contract TokenManagerLinker",
          "name": "newIMALinker",
          "type": "address"
        },
        {
          "internalType": "contract CommunityLocker",
          "name": "newCommunityLocker",
          "type": "address"
        },
        {
          "internalType": "address",
          "name": "newDepositBox",
          "type": "address"
        }
      ],
      "name": "initializeTokenManager",
      "outputs": [],
      "stateMutability": "nonpayable",
      "type": "function"
    },
    {
      "inputs": [],
      "name": "messageProxy",
      "outputs": [
        {
          "internalType": "contract MessageProxyForSchain",
          "name": "",
          "type": "address"
        }
      ],
      "stateMutability": "view",
      "type": "function"
    },
    {
      "inputs": [
        {
          "internalType": "bytes32",
          "name": "fromChainHash",
          "type": "bytes32"
        },
        {
          "internalType": "address",
          "name": "sender",
          "type": "address"
        },
        {
          "internalType": "bytes",
          "name": "data",
          "type": "bytes"
        }
      ],
      "name": "postMessage",
      "outputs": [
        {
          "internalType": "address",
          "name": "",
          "type": "address"
        }
      ],
      "stateMutability": "nonpayable",
      "type": "function"
    },
    {
      "inputs": [
        {
          "internalType": "string",
          "name": "schainName",
          "type": "string"
        }
      ],
      "name": "removeTokenManager",
      "outputs": [],
      "stateMutability": "nonpayable",
      "type": "function"
    },
    {
      "inputs": [
        {
          "internalType": "bytes32",
          "name": "role",
          "type": "bytes32"
        },
        {
          "internalType": "address",
          "name": "account",
          "type": "address"
        }
      ],
      "name": "renounceRole",
      "outputs": [],
      "stateMutability": "nonpayable",
      "type": "function"
    },
    {
      "inputs": [
        {
          "internalType": "bytes32",
          "name": "role",
          "type": "bytes32"
        },
        {
          "internalType": "address",
          "name": "account",
          "type": "address"
        }
      ],
      "name": "revokeRole",
      "outputs": [],
      "stateMutability": "nonpayable",
      "type": "function"
    },
    {
      "inputs": [],
      "name": "schainHash",
      "outputs": [
        {
          "internalType": "bytes32",
          "name": "",
          "type": "bytes32"
        }
      ],
      "stateMutability": "view",
      "type": "function"
    },
    {
      "inputs": [
        {
          "internalType": "bytes4",
          "name": "interfaceId",
          "type": "bytes4"
        }
      ],
      "name": "supportsInterface",
      "outputs": [
        {
          "internalType": "bool",
          "name": "",
          "type": "bool"
        }
      ],
      "stateMutability": "view",
      "type": "function"
    },
    {
      "inputs": [],
      "name": "tokenManagerLinker",
      "outputs": [
        {
          "internalType": "contract TokenManagerLinker",
          "name": "",
          "type": "address"
        }
      ],
      "stateMutability": "view",
      "type": "function"
    },
    {
      "inputs": [
        {
          "internalType": "bytes32",
          "name": "",
          "type": "bytes32"
        }
      ],
      "name": "tokenManagers",
      "outputs": [
        {
          "internalType": "address",
          "name": "",
          "type": "address"
        }
      ],
      "stateMutability": "view",
      "type": "function"
    },
    {
      "inputs": [
        {
          "internalType": "string",
          "name": "targetSchainName",
          "type": "string"
        },
        {
          "internalType": "address",
          "name": "contractOnMainnet",
          "type": "address"
        },
        {
          "internalType": "address",
          "name": "to",
          "type": "address"
        },
        {
          "internalType": "uint256",
          "name": "id",
          "type": "uint256"
        },
        {
          "internalType": "uint256",
          "name": "amount",
          "type": "uint256"
        }
      ],
      "name": "transferToSchainERC1155",
      "outputs": [],
      "stateMutability": "nonpayable",
      "type": "function"
    },
    {
      "inputs": [
        {
          "internalType": "string",
          "name": "targetSchainName",
          "type": "string"
        },
        {
          "internalType": "address",
          "name": "contractOnMainnet",
          "type": "address"
        },
        {
          "internalType": "address",
          "name": "to",
          "type": "address"
        },
        {
          "internalType": "uint256[]",
          "name": "ids",
          "type": "uint256[]"
        },
        {
          "internalType": "uint256[]",
          "name": "amounts",
          "type": "uint256[]"
        }
      ],
      "name": "transferToSchainERC1155Batch",
      "outputs": [],
      "stateMutability": "nonpayable",
      "type": "function"
    }
  ],
  "bytecode": "0x608060405234801561001057600080fd5b50616cc9806100206000396000f3fe60806040523480156200001157600080fd5b50600436106200023d5760003560e01c80636ce681d2116200013d578063b9581c5011620000bb578063cc5b715b1162000086578063cc5b715b146200053d578063d547741f1462000565578063dec2deb6146200057c578063e7ece2281462000591578063edcc12b514620005a857600080fd5b8063b9581c5014620004ee578063c0e312dc14620004f8578063ca15c873146200050f578063cb703bff146200052657600080fd5b80639010d07c11620001085780639010d07c146200048957806391d1485414620004a0578063a217fddf14620004b7578063ade6867614620004c0578063b626a44f14620004d757600080fd5b80636ce681d214620004335780636d611286146200044a5780636d6c68e6146200045e578063884cee5a146200047257600080fd5b80632f2ff15d11620001cb5780633fa194ce11620001965780633fa194ce146200038f57806350f4428014620003a65780635492d3b514620003dc5780635573b8b614620003f35780636685bde5146200040757600080fd5b80632f2ff15d146200034057806336568abe146200035757806339927cf9146200036e5780633b690b6b146200038557600080fd5b80630f1a8f74116200020c5780630f1a8f7414620002a8578063248a9ca314620002ed57806328c5e18214620003225780632dc151de146200032c57600080fd5b806301ffc9a71462000242578063029996b8146200026e578063066ee47f146200027a5780630b885ac31462000291575b600080fd5b620002596200025336600462003055565b620005bf565b60405190151581526020015b60405180910390f35b62000278620005ed565b005b620002786200028b36600462003140565b62000645565b62000278620002a236600462003284565b620007ff565b620002d4620002b936600462002f8f565b60ce602052600090815260409020546001600160a01b031681565b6040516001600160a01b03909116815260200162000265565b62000313620002fe36600462002f8f565b60009081526065602052604090206001015490565b60405190815260200162000265565b6200031362000885565b60ca54620002d4906001600160a01b031681565b620002786200035136600462002fa9565b620008d0565b620002786200036836600462002fa9565b620008fb565b620002596200037f3660046200309f565b62000921565b6200031360cc5481565b6200031360008051602062006c7483398151915281565b620003cd6040518060400160405280600781526020016613585a5b9b995d60ca1b81525081565b604051620002659190620036af565b62000278620003ed36600462003203565b6200097e565b60c954620002d4906001600160a01b031681565b620002d46200041836600462002e2f565b60cf602052600090815260409020546001600160a01b031681565b620002786200044436600462003284565b62000b2c565b60cd54620002d4906001600160a01b031681565b60cb54620002d4906001600160a01b031681565b620002d46200048336600462002fd1565b62000d01565b620002d46200049a36600462003032565b62000f3e565b62000259620004b136600462002fa9565b62000f5f565b62000313600081565b62000278620004d136600462002e4f565b62000f8a565b62000278620004e836600462002f2d565b62001055565b620002786200117f565b62000278620005093660046200309f565b620011c8565b620003136200052036600462002f8f565b620012e6565b6200027862000537366004620030e4565b620012ff565b620003137ffda70c2cc66a36c14884ee85424961f51b1d92b4494751699b6d105b3bcbcba881565b620002786200057636600462002fa9565b62001457565b60cd546200025990600160a01b900460ff1681565b62000278620005a236600462002ee2565b62001463565b62000278620005b936600462002e2f565b62001528565b60006001600160e01b03198216635a05180f60e01b1480620005e75750620005e78262001644565b92915050565b6200060860008051602062006c748339815191523362000f5f565b620006305760405162461bcd60e51b815260040162000627906200374b565b60405180910390fd5b60cd805460ff60a01b1916600160a01b179055565b85858080601f0160208091040260200160405190810160405280939291908181526020018383808284376000920182905250604051889450909250620006919150849060200162003520565b60408051601f1981840301815282825280516020918201208383018352600784526613585a5b9b995d60ca1b848301529151919350620006d392910162003520565b604051602081830303815290604052805190602001208114156200070b5760405162461bcd60e51b81526004016200062790620036fb565b6001600160a01b038216620007635760405162461bcd60e51b815260206004820152601a60248201527f496e636f72726563742072656365697665722061646472657373000000000000604482015260640162000627565b600081815260ce60205260409020546001600160a01b03166200079a5760405162461bcd60e51b81526004016200062790620036c4565b60008989604051602001620007b192919062003510565b60408051601f198184030181529181528151602092830120600081815260ce909352912054909150620007f39082906001600160a01b03168a8a8a8a6200167b565b50505050505050505050565b600054610100900460ff168062000819575060005460ff16155b620008385760405162461bcd60e51b815260040162000627906200378c565b600054610100900460ff161580156200085b576000805461ffff19166101011790555b6200086a868686868662000b2c565b80156200087d576000805461ff00191690555b505050505050565b6040518060400160405280600781526020016613585a5b9b995d60ca1b815250604051602001620008b7919062003520565b6040516020818303038152906040528051906020012081565b620008dc828262001897565b6000828152609760205260409020620008f69082620018c1565b505050565b620009078282620018d8565b6000828152609760205260409020620008f690826200195a565b6000806001600160a01b031660ce600085856040516020016200094692919062003510565b60408051808303601f19018152918152815160209283012083529082019290925201600020546001600160a01b031614159392505050565b85858080601f0160208091040260200160405190810160405280939291908181526020018383808284376000920182905250604051889450909250620009ca9150849060200162003520565b60408051601f1981840301815282825280516020918201208383018352600784526613585a5b9b995d60ca1b84830152915191935062000a0c92910162003520565b6040516020818303038152906040528051906020012081141562000a445760405162461bcd60e51b81526004016200062790620036fb565b6001600160a01b03821662000a9c5760405162461bcd60e51b815260206004820152601a60248201527f496e636f72726563742072656365697665722061646472657373000000000000604482015260640162000627565b600081815260ce60205260409020546001600160a01b031662000ad35760405162461bcd60e51b81526004016200062790620036c4565b6000898960405160200162000aea92919062003510565b60408051601f198184030181529181528151602092830120600081815260ce909352912054909150620007f39082906001600160a01b03168a8a8a8a62001971565b600054610100900460ff168062000b46575060005460ff16155b62000b655760405162461bcd60e51b815260040162000627906200378c565b600054610100900460ff1615801562000b88576000805461ffff19166101011790555b6001600160a01b03821662000be05760405162461bcd60e51b815260206004820181905260248201527f4465706f736974426f7820616464726573732068617320746f20626520736574604482015260640162000627565b62000bea62001b1b565b62000bf760003362001bb5565b62000c1260008051602062006c748339815191523362001bb5565b62000c3e7ffda70c2cc66a36c14884ee85424961f51b1d92b4494751699b6d105b3bcbcba83362001bb5565b8560405160200162000c51919062003520565b60408051601f19818403018152828252805160209182012060cc5560c980546001600160a01b038a81166001600160a01b03199283161790925560ca80548a841690831617905560cb805489841690831617905560cd8054928816929091168217905560008452908301527fc968af77923193016f61d74ba6827296db5e1f37ec4fab3ad1ef20e193395e59910160405180910390a180156200087d576000805461ff0019169055505050505050565b60c9546000906001600160a01b0316331462000d605760405162461bcd60e51b815260206004820152601c60248201527f53656e646572206973206e6f742061204d65737361676550726f787900000000604482015260640162000627565b848460cc54821415801562000df457506040518060400160405280600781526020016613585a5b9b995d60ca1b81525060405160200162000da2919062003520565b60405160208183030381529060405280519060200120821462000de257600082815260ce60205260409020546001600160a01b0382811691161462000df4565b60cd546001600160a01b038281169116145b62000e425760405162461bcd60e51b815260206004820152601b60248201527f526563656976657220636861696e20697320696e636f72726563740000000000604482015260640162000627565b600062000e50868662001bc1565b90506000600982600c81111562000e6b5762000e6b62003a4a565b148062000e8c5750600a82600c81111562000e8a5762000e8a62003a4a565b145b1562000ea65762000e9e878762001c15565b905062000f32565b600b82600c81111562000ebd5762000ebd62003a4a565b148062000ede5750600c82600c81111562000edc5762000edc62003a4a565b145b1562000ef05762000e9e878762001ed4565b60405162461bcd60e51b815260206004820152601660248201527526b2b9b9b0b3b2aa3cb8329034b9903ab735b737bbb760511b604482015260640162000627565b98975050505050505050565b600082815260976020526040812062000f58908362002158565b9392505050565b60009182526065602090815260408084206001600160a01b0393909316845291905290205460ff1690565b60cb546040516311be333d60e11b81526001600160a01b0385811660048301529091169063237c667a90602401600060405180830381600087803b15801562000fd257600080fd5b505af115801562000fe7573d6000803e3d6000fd5b505050506200104f6040518060400160405280600781526020016613585a5b9b995d60ca1b81525060405160200162001021919062003520565b60408051601f19818403018152919052805160209091012060cd546001600160a01b0316868686866200167b565b50505050565b620010817ffda70c2cc66a36c14884ee85424961f51b1d92b4494751699b6d105b3bcbcba83362000f5f565b620010cf5760405162461bcd60e51b815260206004820181905260248201527f544f4b454e5f5245474953545241525f524f4c45206973207265717569726564604482015260640162000627565b6001600160a01b0381163b620011285760405162461bcd60e51b815260206004820152601f60248201527f476976656e2061646472657373206973206e6f74206120636f6e747261637400604482015260640162000627565b6001600160a01b03828116600081815260cf602052604080822080546001600160a01b0319169486169485179055517f096b3e2c36bc263e90f7577e70dc47b6536fc8d85d467d54f61f91c2ca091c519190a35050565b6200119a60008051602062006c748339815191523362000f5f565b620011b95760405162461bcd60e51b815260040162000627906200374b565b60cd805460ff60a01b19169055565b60ca546001600160a01b0316331480620011ea5750620011ea60003362000f5f565b620012305760405162461bcd60e51b81526020600482015260156024820152742737ba1030baba3437b934bd32b21031b0b63632b960591b604482015260640162000627565b600082826040516020016200124792919062003510565b60408051601f198184030181529181528151602092830120600081815260ce9093529120549091506001600160a01b0316620012c65760405162461bcd60e51b815260206004820152601860248201527f546f6b656e204d616e61676572206973206e6f74207365740000000000000000604482015260640162000627565b600090815260ce6020526040902080546001600160a01b03191690555050565b6000818152609760205260408120620005e79062002166565b60ca546001600160a01b03163314806200132157506200132160003362000f5f565b620013675760405162461bcd60e51b81526020600482015260156024820152742737ba1030baba3437b934bd32b21031b0b63632b960591b604482015260640162000627565b600083836040516020016200137e92919062003510565b60408051601f198184030181529181528151602092830120600081815260ce9093529120549091506001600160a01b031615620013fe5760405162461bcd60e51b815260206004820152601c60248201527f546f6b656e204d616e6167657220697320616c72656164792073657400000000604482015260640162000627565b6001600160a01b038216620014275760405162461bcd60e51b81526004016200062790620036c4565b600090815260ce6020526040902080546001600160a01b0319166001600160a01b03929092169190911790555050565b62000907828262002171565b60cb546040516311be333d60e11b81526001600160a01b0385811660048301529091169063237c667a90602401600060405180830381600087803b158015620014ab57600080fd5b505af1158015620014c0573d6000803e3d6000fd5b505050506200104f6040518060400160405280600781526020016613585a5b9b995d60ca1b815250604051602001620014fa919062003520565b60408051601f19818403018152919052805160209091012060cd546001600160a01b03168686868662001971565b6200153560003362000f5f565b620015835760405162461bcd60e51b815260206004820152601e60248201527f44454641554c545f41444d494e5f524f4c452069732072657175697265640000604482015260640162000627565b6001600160a01b038116620015db5760405162461bcd60e51b815260206004820181905260248201527f4465706f736974426f7820616464726573732068617320746f20626520736574604482015260640162000627565b60cd54604080516001600160a01b03928316815291831660208301527fc968af77923193016f61d74ba6827296db5e1f37ec4fab3ad1ef20e193395e59910160405180910390a160cd80546001600160a01b0319166001600160a01b0392909216919091179055565b60006001600160e01b03198216637965db0b60e01b1480620005e757506301ffc9a760e01b6001600160e01b0319831614620005e7565b6001600160a01b03848116600090815260cf602052604090205416803b620016e15760405162461bcd60e51b81526020600482015260186024820152772737903a37b5b2b71031b637b7329037b71039b1b430b4b760411b604482015260640162000627565b60405163e985e9c560e01b81523360048201523060248201526001600160a01b0382169063e985e9c59060440160206040518083038186803b1580156200172757600080fd5b505afa1580156200173c573d6000803e3d6000fd5b505050506040513d601f19601f8201168201806040525081019062001762919062002f6b565b620017ac5760405162461bcd60e51b81526020600482015260196024820152782737ba1030b63637bbb2b21022a92198989a9a902a37b5b2b760391b604482015260640162000627565b604051631ac8311560e21b81526001600160a01b03821690636b20c45490620017de90339087908790600401620035b7565b600060405180830381600087803b158015620017f957600080fd5b505af11580156200180e573d6000803e3d6000fd5b50505050600062001822868686866200219b565b60c954604051634a24490160e11b81529192506001600160a01b03169063944892029062001859908b908b90869060040162003683565b600060405180830381600087803b1580156200187457600080fd5b505af115801562001889573d6000803e3d6000fd5b505050505050505050505050565b600082815260656020526040902060010154620018b5813362002204565b620008f6838362002273565b600062000f58836001600160a01b038416620022fd565b6001600160a01b03811633146200194a5760405162461bcd60e51b815260206004820152602f60248201527f416363657373436f6e74726f6c3a2063616e206f6e6c792072656e6f756e636560448201526e103937b632b9903337b91039b2b63360891b606482015260840162000627565b6200195682826200234f565b5050565b600062000f58836001600160a01b038416620023b9565b6001600160a01b03848116600090815260cf602052604090205416803b620019d75760405162461bcd60e51b81526020600482015260186024820152772737903a37b5b2b71031b637b7329037b71039b1b430b4b760411b604482015260640162000627565b60405163e985e9c560e01b81523360048201523060248201526001600160a01b0382169063e985e9c59060440160206040518083038186803b15801562001a1d57600080fd5b505afa15801562001a32573d6000803e3d6000fd5b505050506040513d601f19601f8201168201806040525081019062001a58919062002f6b565b62001aa25760405162461bcd60e51b81526020600482015260196024820152782737ba1030b63637bbb2b21022a92198989a9a902a37b5b2b760391b604482015260640162000627565b604051637a94c56560e11b815233600482015260248101849052604481018390526001600160a01b0382169063f5298aca90606401600060405180830381600087803b15801562001af257600080fd5b505af115801562001b07573d6000803e3d6000fd5b5050505060006200182286868686620024bd565b600054610100900460ff168062001b35575060005460ff16155b62001b545760405162461bcd60e51b815260040162000627906200378c565b600054610100900460ff1615801562001b77576000805461ffff19166101011790555b62001b816200250c565b62001b8b6200250c565b62001b956200250c565b62001b9f6200250c565b801562001bb2576000805461ff00191690555b50565b620008dc82826200257c565b60008062001bd28385018562002f8f565b905062001be160208262003a11565b62001c075762001bfe62001bf88483818862003945565b62001bc1565b915050620005e7565b62001bfe8385018562003081565b60008062001c24848462001bc1565b9050600080808080600986600c81111562001c435762001c4362003a4a565b141562001c9f57600062001c588a8a62002588565b60408082015160208084015160608501516080909501516001600160a01b03808316600090815260cf9094529490922054929a50985092965091945016915062001deb9050565b600062001cad8a8a62002644565b805160408082015160208084015160608501516080909501516001600160a01b03808316600090815260cf9094529490922054929b50995092975091955016925090508162001de95760cd54600160a01b900460ff1662001d515760405162461bcd60e51b815260206004820152601c60248201527f4175746f6d61746963206465706c6f792069732064697361626c656400000000604482015260640162000627565b60208101515160405162001d659062002a7e565b62001d719190620036af565b604051809103906000f08015801562001d8e573d6000803e3d6000fd5b506001600160a01b03868116600081815260cf602052604080822080546001600160a01b031916948616948517905551939550919290917ff591ef422bd6af456a3cad967032f043099a7d9838494d88ba15d16a89f50b7491a35b505b60405163731133e960e01b81526001600160a01b0386811660048301526024820185905260448201849052608060648301526000608483015282169063731133e99060a401600060405180830381600087803b15801562001e4b57600080fd5b505af115801562001e60573d6000803e3d6000fd5b50505050806001600160a01b0316846001600160a01b03167f84899afd4ab55115c2eab5a59471e73bc42359e7c3d4e5a3c1aa4837bd20ed5562001ea486620026e6565b62001eaf86620026e6565b60405162001ebf92919062003651565b60405180910390a35092979650505050505050565b60008062001ee3848462001bc1565b905060008060608082600b86600c81111562001f035762001f0362003a4a565b141562001f5f57600062001f188a8a62002730565b60408082015160208084015160608501516080909501516001600160a01b03808316600090815260cf9094529490922054929a509850929650919450169150620020ab9050565b600062001f6d8a8a620027f1565b805160408082015160208084015160608501516080909501516001600160a01b03808316600090815260cf9094529490922054929b509950929750919550169250905081620020a95760cd54600160a01b900460ff16620020115760405162461bcd60e51b815260206004820152601c60248201527f4175746f6d61746963206465706c6f792069732064697361626c656400000000604482015260640162000627565b602081015151604051620020259062002a7e565b620020319190620036af565b604051809103906000f0801580156200204e573d6000803e3d6000fd5b506001600160a01b03868116600081815260cf602052604080822080546001600160a01b031916948616948517905551939550919290917ff591ef422bd6af456a3cad967032f043099a7d9838494d88ba15d16a89f50b7491a35b505b604051630fbfeffd60e11b81526001600160a01b03821690631f7fdffa90620020dd90889087908790600401620035fb565b600060405180830381600087803b158015620020f857600080fd5b505af11580156200210d573d6000803e3d6000fd5b50505050806001600160a01b0316846001600160a01b03167f84899afd4ab55115c2eab5a59471e73bc42359e7c3d4e5a3c1aa4837bd20ed55858560405162001ebf92919062003651565b600062000f58838362002898565b6000620005e7825490565b6000828152606560205260409020600101546200218f813362002204565b620008f683836200234f565b6040805160c081018252600b60a0820190815281526001600160a01b03808716602080840191909152908616828401526060808301869052608083018590529251620021ea91839101620037da565b604051602081830303815290604052915050949350505050565b62002210828262000f5f565b62001956576200222b816001600160a01b03166014620028c5565b62002238836020620028c5565b6040516020016200224b9291906200353e565b60408051601f198184030181529082905262461bcd60e51b82526200062791600401620036af565b6200227f828262000f5f565b620019565760008281526065602090815260408083206001600160a01b03851684529091529020805460ff19166001179055620022b93390565b6001600160a01b0316816001600160a01b0316837f2f8788117e7eff1d82e926ec794901d17c78024a50270940304540a733656f0d60405160405180910390a45050565b60008181526001830160205260408120546200234657508154600181810184556000848152602080822090930184905584548482528286019093526040902091909155620005e7565b506000620005e7565b6200235b828262000f5f565b15620019565760008281526065602090815260408083206001600160a01b0385168085529252808320805460ff1916905551339285917ff6391f5c32d9c69d2a47ea670b442974b53935d1edc7fd64eb21e047a839171b9190a45050565b60008181526001830160205260408120548015620024b2576000620023e0600183620039ae565b8554909150600090620023f690600190620039ae565b9050818114620024625760008660000182815481106200241a576200241a62003a76565b906000526020600020015490508087600001848154811062002440576200244062003a76565b6000918252602080832090910192909255918252600188019052604090208390555b855486908062002476576200247662003a60565b600190038181906000526020600020016000905590558560010160008681526020019081526020016000206000905560019350505050620005e7565b6000915050620005e7565b6040805160c081018252600960a0820190815281526001600160a01b03808716602080840191909152908616828401526060808301869052608083018590529251620021ea918391016200384c565b600054610100900460ff168062002526575060005460ff16155b620025455760405162461bcd60e51b815260040162000627906200378c565b600054610100900460ff1615801562001b9f576000805461ffff1916610101179055801562001bb2576000805461ff001916905550565b62001956828262002273565b6040805160c081018252600060a082018181528252602082018190529181018290526060810182905260808101919091526009620025c7848462001bc1565b600c811115620025db57620025db62003a4a565b14620026365760405162461bcd60e51b8152602060048201526024808201527f4d6573736167652074797065206973206e6f742045524331313535207472616e60448201526339b332b960e11b606482015260840162000627565b62000f58828401846200345f565b6200264e62002a8c565b600a6200265c848462001bc1565b600c81111562002670576200267062003a4a565b14620026d85760405162461bcd60e51b815260206004820152603060248201527f4d6573736167652074797065206973206e6f742045524331313535416e64546f60448201526f35b2b724b73337903a3930b739b332b960811b606482015260840162000627565b62000f588284018462003319565b6040805160018082528183019092526060916020808301908036833701905050905081816000815181106200271f576200271f62003a76565b602002602001018181525050919050565b6040805160c081018252600060a082018181528252602082018190529181019190915260608082018190526080820152600b6200276e848462001bc1565b600c81111562002782576200278262003a4a565b14620027e35760405162461bcd60e51b815260206004820152602960248201527f4d6573736167652074797065206973206e6f7420455243313135354261746368604482015268103a3930b739b332b960b91b606482015260840162000627565b62000f58828401846200341f565b620027fb62002ae5565b600c62002809848462001bc1565b600c8111156200281d576200281d62003a4a565b146200288a5760405162461bcd60e51b815260206004820152603560248201527f4d6573736167652074797065206973206e6f742045524331313535426174636860448201527420b7322a37b5b2b724b73337903a3930b739b332b960591b606482015260840162000627565b62000f5882840184620033a1565b6000826000018281548110620028b257620028b262003a76565b9060005260206000200154905092915050565b60606000620028d68360026200398c565b620028e390600262003971565b6001600160401b03811115620028fd57620028fd62003a8c565b6040519080825280601f01601f19166020018201604052801562002928576020820181803683370190505b509050600360fc1b8160008151811062002946576200294662003a76565b60200101906001600160f81b031916908160001a905350600f60fb1b8160018151811062002978576200297862003a76565b60200101906001600160f81b031916908160001a90535060006200299e8460026200398c565b620029ab90600162003971565b90505b600181111562002a2d576f181899199a1a9b1b9c1cb0b131b232b360811b85600f1660108110620029e357620029e362003a76565b1a60f81b828281518110620029fc57620029fc62003a76565b60200101906001600160f81b031916908160001a90535060049490941c9362002a2581620039f7565b9050620029ae565b50831562000f585760405162461bcd60e51b815260206004820181905260248201527f537472696e67733a20686578206c656e67746820696e73756666696369656e74604482015260640162000627565b6131bb8062003ab983390190565b6040805161010081018252600060e08201818152928201928352606082018190526080820181905260a0820181905260c08201529081905b815260200162002ae06040518060200160405280606081525090565b905290565b6040805161010081018252600060e082018181529282019283526060808301829052608083019190915260a0820181905260c082015290819062002ac4565b600082601f83011262002b3657600080fd5b813560206001600160401b0382111562002b545762002b5462003a8c565b8160051b62002b6582820162003912565b83815282810190868401838801850189101562002b8157600080fd5b600093505b8584101562002ba657803583526001939093019291840191840162002b86565b50979650505050505050565b60008083601f84011262002bc557600080fd5b5081356001600160401b0381111562002bdd57600080fd5b60208301915083602082850101111562002bf657600080fd5b9250929050565b8035600d811062002c0d57600080fd5b919050565b600082601f83011262002c2457600080fd5b81356001600160401b0381111562002c405762002c4062003a8c565b62002c55601f8201601f191660200162003912565b81815284602083860101111562002c6b57600080fd5b816020850160208301376000918101602001919091529392505050565b60006020828403121562002c9b57600080fd5b62002ca56200389d565b905062002cb28262002bfd565b815292915050565b60006020828403121562002ccd57600080fd5b62002cd76200389d565b905081356001600160401b0381111562002cf057600080fd5b62002cfe8482850162002c12565b82525092915050565b600060a0828403121562002d1a57600080fd5b62002d24620038c8565b905062002d32838362002c88565b8152602082013562002d448162003aa2565b6020820152604082013562002d598162003aa2565b604082015260608201356001600160401b038082111562002d7957600080fd5b62002d878583860162002b24565b6060840152608084013591508082111562002da157600080fd5b5062002db08482850162002b24565b60808301525092915050565b600060a0828403121562002dcf57600080fd5b62002dd9620038c8565b905062002de7838362002c88565b8152602082013562002df98162003aa2565b6020820152604082013562002e0e8162003aa2565b80604083015250606082013560608201526080820135608082015292915050565b60006020828403121562002e4257600080fd5b813562000f588162003aa2565b6000806000806080858703121562002e6657600080fd5b843562002e738162003aa2565b9350602085013562002e858162003aa2565b925060408501356001600160401b038082111562002ea257600080fd5b62002eb08883890162002b24565b9350606087013591508082111562002ec757600080fd5b5062002ed68782880162002b24565b91505092959194509250565b6000806000806080858703121562002ef957600080fd5b843562002f068162003aa2565b9350602085013562002f188162003aa2565b93969395505050506040820135916060013590565b6000806040838503121562002f4157600080fd5b823562002f4e8162003aa2565b9150602083013562002f608162003aa2565b809150509250929050565b60006020828403121562002f7e57600080fd5b8151801515811462000f5857600080fd5b60006020828403121562002fa257600080fd5b5035919050565b6000806040838503121562002fbd57600080fd5b82359150602083013562002f608162003aa2565b6000806000806060858703121562002fe857600080fd5b84359350602085013562002ffc8162003aa2565b925060408501356001600160401b038111156200301857600080fd5b620030268782880162002bb2565b95989497509550505050565b600080604083850312156200304657600080fd5b50508035926020909101359150565b6000602082840312156200306857600080fd5b81356001600160e01b03198116811462000f5857600080fd5b6000602082840312156200309457600080fd5b62000f588262002bfd565b60008060208385031215620030b357600080fd5b82356001600160401b03811115620030ca57600080fd5b620030d88582860162002bb2565b90969095509350505050565b600080600060408486031215620030fa57600080fd5b83356001600160401b038111156200311157600080fd5b6200311f8682870162002bb2565b9094509250506020840135620031358162003aa2565b809150509250925092565b60008060008060008060a087890312156200315a57600080fd5b86356001600160401b03808211156200317257600080fd5b620031808a838b0162002bb2565b909850965060208901359150620031978262003aa2565b909450604088013590620031ab8262003aa2565b90935060608801359080821115620031c257600080fd5b620031d08a838b0162002b24565b93506080890135915080821115620031e757600080fd5b50620031f689828a0162002b24565b9150509295509295509295565b60008060008060008060a087890312156200321d57600080fd5b86356001600160401b038111156200323457600080fd5b6200324289828a0162002bb2565b9097509550506020870135620032588162003aa2565b935060408701356200326a8162003aa2565b959894975092956060810135946080909101359350915050565b600080600080600060a086880312156200329d57600080fd5b85356001600160401b03811115620032b457600080fd5b620032c28882890162002c12565b9550506020860135620032d58162003aa2565b93506040860135620032e78162003aa2565b92506060860135620032f98162003aa2565b915060808601356200330b8162003aa2565b809150509295509295909350565b6000602082840312156200332c57600080fd5b81356001600160401b03808211156200334457600080fd5b9083019060c082860312156200335957600080fd5b62003363620038ed565b6200336f868462002dbc565b815260a0830135828111156200338457600080fd5b620033928782860162002cba565b60208301525095945050505050565b600060208284031215620033b457600080fd5b81356001600160401b0380821115620033cc57600080fd5b9083019060408286031215620033e157600080fd5b620033eb620038ed565b823582811115620033fb57600080fd5b620034098782860162002d07565b8252506020830135828111156200338457600080fd5b6000602082840312156200343257600080fd5b81356001600160401b038111156200344957600080fd5b620034578482850162002d07565b949350505050565b600060a082840312156200347257600080fd5b62000f58838362002dbc565b600081518084526020808501945080840160005b83811015620034b05781518752958201959082019060010162003492565b509495945050505050565b60008151808452620034d5816020860160208601620039c8565b601f01601f19169290920160200192915050565b8051600d81106200350a57634e487b7160e01b600052602160045260246000fd5b90915250565b8183823760009101908152919050565b6000825162003534818460208701620039c8565b9190910192915050565b7f416363657373436f6e74726f6c3a206163636f756e742000000000000000000081526000835162003578816017850160208801620039c8565b7001034b99036b4b9b9b4b733903937b6329607d1b6017918401918201528351620035ab816028840160208801620039c8565b01602801949350505050565b6001600160a01b0384168152606060208201819052600090620035dd908301856200347e565b8281036040840152620035f181856200347e565b9695505050505050565b6001600160a01b038416815260806020820181905260009062003621908301856200347e565b82810360408401526200363581856200347e565b8381036060909401939093525050600081526020019392505050565b6040815260006200366660408301856200347e565b82810360208401526200367a81856200347e565b95945050505050565b8381526001600160a01b03831660208201526060604082018190526000906200367a90830184620034bb565b60208152600062000f586020830184620034bb565b6020808252601f908201527f496e636f727265637420546f6b656e204d616e61676572206164647265737300604082015260600190565b60208082526030908201527f546869732066756e6374696f6e206973206e6f7420666f72207472616e73666560408201526f1c9c9a5b99c81d1bc813585a5b9b995d60821b606082015260800190565b60208082526021908201527f4155544f4d415449435f4445504c4f595f524f4c4520697320726571756972656040820152601960fa1b606082015260800190565b6020808252602e908201527f496e697469616c697a61626c653a20636f6e747261637420697320616c72656160408201526d191e481a5b9a5d1a585b1a5e995960921b606082015260800190565b60208152620037ee602082018351620034e9565b6000602083015160018060a01b0380821660408501528060408601511660608501525050606083015160a060808401526200382d60c08401826200347e565b90506080840151601f198483030160a08501526200367a82826200347e565b600060a08201905062003861828451620034e9565b602083015160018060a01b0380821660208501528060408601511660408501525050606083015160608301526080830151608083015292915050565b604051602081016001600160401b0381118282101715620038c257620038c262003a8c565b60405290565b60405160a081016001600160401b0381118282101715620038c257620038c262003a8c565b604080519081016001600160401b0381118282101715620038c257620038c262003a8c565b604051601f8201601f191681016001600160401b03811182821017156200393d576200393d62003a8c565b604052919050565b600080858511156200395657600080fd5b838611156200396457600080fd5b5050820193919092039150565b6000821982111562003987576200398762003a34565b500190565b6000816000190483118215151615620039a957620039a962003a34565b500290565b600082821015620039c357620039c362003a34565b500390565b60005b83811015620039e5578181015183820152602001620039cb565b838111156200104f5750506000910152565b60008162003a095762003a0962003a34565b506000190190565b60008262003a2f57634e487b7160e01b600052601260045260246000fd5b500690565b634e487b7160e01b600052601160045260246000fd5b634e487b7160e01b600052602160045260246000fd5b634e487b7160e01b600052603160045260246000fd5b634e487b7160e01b600052603260045260246000fd5b634e487b7160e01b600052604160045260246000fd5b6001600160a01b038116811462001bb257600080fdfe60806040523480156200001157600080fd5b50604051620031bb380380620031bb83398101604081905262000034916200073f565b600054610100900460ff16806200004e575060005460ff16155b620000a65760405162461bcd60e51b815260206004820152602e60248201526000805160206200317b83398151915260448201526d191e481a5b9a5d1a585b1a5e995960921b60648201526084015b60405180910390fd5b600054610100900460ff16158015620000c9576000805461ffff19166101011790555b620000de6200015a60201b620009b11760201c565b620000f4826200022960201b62000a3d1760201c565b62000109620002f060201b62000ac31760201c565b620001246000805160206200319b833981519152806200038a565b6200013f6000805160206200319b83398151915233620003de565b801562000152576000805461ff00191690555b50506200086e565b600054610100900460ff168062000174575060005460ff16155b620001c85760405162461bcd60e51b815260206004820152602e60248201526000805160206200317b83398151915260448201526d191e481a5b9a5d1a585b1a5e995960921b60648201526084016200009d565b600054610100900460ff16158015620001eb576000805461ffff19166101011790555b620001f562000421565b620001ff62000421565b6200020962000421565b6200021362000421565b801562000226576000805461ff00191690555b50565b600054610100900460ff168062000243575060005460ff16155b620002975760405162461bcd60e51b815260206004820152602e60248201526000805160206200317b83398151915260448201526d191e481a5b9a5d1a585b1a5e995960921b60648201526084016200009d565b600054610100900460ff16158015620002ba576000805461ffff19166101011790555b620002c462000421565b620002ce62000421565b620002d982620004c6565b8015620002ec576000805461ff00191690555b5050565b600054610100900460ff16806200030a575060005460ff16155b6200035e5760405162461bcd60e51b815260206004820152602e60248201526000805160206200317b83398151915260448201526d191e481a5b9a5d1a585b1a5e995960921b60648201526084016200009d565b600054610100900460ff16158015620001f5576000805461ffff1916610101179055620001ff62000421565b600082815260656020526040902060010154819060405184907fbd79b86ffe0ab8e8776151514217cd7cacd52c909f66475c3af44e129f0b00ff90600090a460009182526065602052604090912060010155565b620003f582826200056260201b62000b211760201c565b60008281526097602090815260409091206200041c91839062000b2b6200056e821b17901c565b505050565b600054610100900460ff16806200043b575060005460ff16155b6200048f5760405162461bcd60e51b815260206004820152602e60248201526000805160206200317b83398151915260448201526d191e481a5b9a5d1a585b1a5e995960921b60648201526084016200009d565b600054610100900460ff1615801562000213576000805461ffff1916610101179055801562000226576000805461ff001916905550565b600054610100900460ff1680620004e0575060005460ff16155b620005345760405162461bcd60e51b815260206004820152602e60248201526000805160206200317b83398151915260448201526d191e481a5b9a5d1a585b1a5e995960921b60648201526084016200009d565b600054610100900460ff1615801562000557576000805461ffff19166101011790555b620002d9826200058e565b620002ec8282620005a3565b600062000585836001600160a01b03841662000647565b90505b92915050565b8051620002ec9060cb90602084019062000699565b60008281526065602090815260408083206001600160a01b038516845290915290205460ff16620002ec5760008281526065602090815260408083206001600160a01b03851684529091529020805460ff19166001179055620006033390565b6001600160a01b0316816001600160a01b0316837f2f8788117e7eff1d82e926ec794901d17c78024a50270940304540a733656f0d60405160405180910390a45050565b6000818152600183016020526040812054620006905750815460018181018455600084815260208082209093018490558454848252828601909352604090209190915562000588565b50600062000588565b828054620006a7906200081b565b90600052602060002090601f016020900481019282620006cb576000855562000716565b82601f10620006e657805160ff191683800117855562000716565b8280016001018555821562000716579182015b8281111562000716578251825591602001919060010190620006f9565b506200072492915062000728565b5090565b5b8082111562000724576000815560010162000729565b600060208083850312156200075357600080fd5b82516001600160401b03808211156200076b57600080fd5b818501915085601f8301126200078057600080fd5b81518181111562000795576200079562000858565b604051601f8201601f19908116603f01168101908382118183101715620007c057620007c062000858565b816040528281528886848701011115620007d957600080fd5b600093505b82841015620007fd5784840186015181850187015292850192620007de565b828411156200080f5760008684830101525b98975050505050505050565b600181811c908216806200083057607f821691505b602082108114156200085257634e487b7160e01b600052602260045260246000fd5b50919050565b634e487b7160e01b600052604160045260246000fd5b6128fd806200087e6000396000f3fe608060405234801561001057600080fd5b50600436106101365760003560e01c8063731133e9116100b8578063ca15c8731161007c578063ca15c873146102b4578063d5391393146102c7578063d547741f146102ee578063e985e9c514610301578063f242432a1461033d578063f5298aca1461035057600080fd5b8063731133e9146102485780639010d07c1461025b57806391d1485414610286578063a217fddf14610299578063a22cb465146102a157600080fd5b80632eb2c2d6116100ff5780632eb2c2d6146101dc5780632f2ff15d146101ef57806336568abe146102025780634e1273f4146102155780636b20c4541461023557600080fd5b8062fdd58e1461013b57806301ffc9a7146101615780630e89341c146101845780631f7fdffa146101a4578063248a9ca3146101b9575b600080fd5b61014e61014936600461200f565b610363565b6040519081526020015b60405180910390f35b61017461016f3660046121f0565b6103ff565b6040519015158152602001610158565b610197610192366004612192565b61040a565b60405161015891906123ea565b6101b76101b2366004611f3a565b61049e565b005b61014e6101c7366004612192565b60009081526065602052604090206001015490565b6101b76101ea366004611db7565b61051f565b6101b76101fd3660046121ab565b6105b6565b6101b76102103660046121ab565b6105dd565b6102286102233660046120c1565b6105ff565b60405161015891906123a9565b6101b7610243366004611ec6565b610729565b6101b761025636600461206c565b61076c565b61026e6102693660046121ce565b6107e7565b6040516001600160a01b039091168152602001610158565b6101746102943660046121ab565b610806565b61014e600081565b6101b76102af366004611fd3565b610831565b61014e6102c2366004612192565b610908565b61014e7f9f2df0fed2c77648de5860a4cc508cd0818c85b8b8a1ab4ceeef8d981c8956a681565b6101b76102fc3660046121ab565b61091f565b61017461030f366004611d84565b6001600160a01b03918216600090815260ca6020908152604080832093909416825291909152205460ff1690565b6101b761034b366004611e61565b610929565b6101b761035e366004612039565b61096e565b60006001600160a01b0383166103d45760405162461bcd60e51b815260206004820152602b60248201527f455243313135353a2062616c616e636520717565727920666f7220746865207a60448201526a65726f206164647265737360a81b60648201526084015b60405180910390fd5b50600081815260c9602090815260408083206001600160a01b03861684529091529020545b92915050565b60006103f982610b40565b606060cb805461041990612730565b80601f016020809104026020016040519081016040528092919081815260200182805461044590612730565b80156104925780601f1061046757610100808354040283529160200191610492565b820191906000526020600020905b81548152906001019060200180831161047557829003601f168201915b50505050509050919050565b6104c87f9f2df0fed2c77648de5860a4cc508cd0818c85b8b8a1ab4ceeef8d981c8956a633610806565b61050d5760405162461bcd60e51b815260206004820152601660248201527529b2b73232b91034b9903737ba10309026b4b73a32b960511b60448201526064016103cb565b61051984848484610b80565b50505050565b6001600160a01b03851633148061053b575061053b853361030f565b6105a25760405162461bcd60e51b815260206004820152603260248201527f455243313135353a207472616e736665722063616c6c6572206973206e6f74206044820152711bdddb995c881b9bdc88185c1c1c9bdd995960721b60648201526084016103cb565b6105af8585858585610ccc565b5050505050565b6105c08282610e6b565b60008281526097602052604090206105d89082610b2b565b505050565b6105e78282610e91565b60008281526097602052604090206105d89082610f0b565b606081518351146106645760405162461bcd60e51b815260206004820152602960248201527f455243313135353a206163636f756e747320616e6420696473206c656e677468604482015268040dad2e6dac2e8c6d60bb1b60648201526084016103cb565b6000835167ffffffffffffffff811115610680576106806127f5565b6040519080825280602002602001820160405280156106a9578160200160208202803683370190505b50905060005b8451811015610721576106f48582815181106106cd576106cd6127df565b60200260200101518583815181106106e7576106e76127df565b6020026020010151610363565b828281518110610706576107066127df565b602090810291909101015261071a81612798565b90506106af565b509392505050565b6001600160a01b0383163314806107455750610745833361030f565b6107615760405162461bcd60e51b81526004016103cb90612489565b6105d8838383610f20565b6107967f9f2df0fed2c77648de5860a4cc508cd0818c85b8b8a1ab4ceeef8d981c8956a633610806565b6107db5760405162461bcd60e51b815260206004820152601660248201527529b2b73232b91034b9903737ba10309026b4b73a32b960511b60448201526064016103cb565b6105198484848461109f565b60008281526097602052604081206107ff9083611171565b9392505050565b60009182526065602090815260408084206001600160a01b0393909316845291905290205460ff1690565b336001600160a01b038316141561089c5760405162461bcd60e51b815260206004820152602960248201527f455243313135353a2073657474696e6720617070726f76616c20737461747573604482015268103337b91039b2b63360b91b60648201526084016103cb565b33600081815260ca602090815260408083206001600160a01b03871680855290835292819020805460ff191686151590811790915590519081529192917f17307eab39ab6107e8899845ad3d59bd9653f200f220920489ca2b5937696c31910160405180910390a35050565b60008181526097602052604081206103f99061117d565b6105e78282611187565b6001600160a01b0385163314806109455750610945853361030f565b6109615760405162461bcd60e51b81526004016103cb90612489565b6105af85858585856111ad565b6001600160a01b03831633148061098a575061098a833361030f565b6109a65760405162461bcd60e51b81526004016103cb90612489565b6105d88383836112ce565b600054610100900460ff16806109ca575060005460ff16155b6109e65760405162461bcd60e51b81526004016103cb90612517565b600054610100900460ff16158015610a08576000805461ffff19166101011790555b610a106113d4565b610a186113d4565b610a206113d4565b610a286113d4565b8015610a3a576000805461ff00191690555b50565b600054610100900460ff1680610a56575060005460ff16155b610a725760405162461bcd60e51b81526004016103cb90612517565b600054610100900460ff16158015610a94576000805461ffff19166101011790555b610a9c6113d4565b610aa46113d4565b610aad8261143e565b8015610abf576000805461ff00191690555b5050565b600054610100900460ff1680610adc575060005460ff16155b610af85760405162461bcd60e51b81526004016103cb90612517565b600054610100900460ff16158015610a10576000805461ffff1916610101179055610a186113d4565b610abf828261149e565b60006107ff836001600160a01b038416611524565b60006001600160e01b03198216636cdb3d1360e11b1480610b7157506001600160e01b031982166303a24d0760e21b145b806103f957506103f982611573565b6001600160a01b038416610ba65760405162461bcd60e51b81526004016103cb9061263a565b8151835114610bc75760405162461bcd60e51b81526004016103cb906125f2565b3360005b8451811015610c6457838181518110610be657610be66127df565b602002602001015160c96000878481518110610c0457610c046127df565b602002602001015181526020019081526020016000206000886001600160a01b03166001600160a01b031681526020019081526020016000206000828254610c4c919061269f565b90915550819050610c5c81612798565b915050610bcb565b50846001600160a01b031660006001600160a01b0316826001600160a01b03167f4a39dc06d4c0dbc64b70af90fd698a233a518aa5d07e595d983b8c0526c8f7fb8787604051610cb59291906123bc565b60405180910390a46105af81600087878787611598565b8151835114610ced5760405162461bcd60e51b81526004016103cb906125f2565b6001600160a01b038416610d135760405162461bcd60e51b81526004016103cb906124d2565b3360005b8451811015610dfd576000858281518110610d3457610d346127df565b602002602001015190506000858381518110610d5257610d526127df565b602090810291909101810151600084815260c9835260408082206001600160a01b038e168352909352919091205490915081811015610da35760405162461bcd60e51b81526004016103cb906125a8565b600083815260c9602090815260408083206001600160a01b038e8116855292528083208585039055908b16825281208054849290610de290849061269f565b9250508190555050505080610df690612798565b9050610d17565b50846001600160a01b0316866001600160a01b0316826001600160a01b03167f4a39dc06d4c0dbc64b70af90fd698a233a518aa5d07e595d983b8c0526c8f7fb8787604051610e4d9291906123bc565b60405180910390a4610e63818787878787611598565b505050505050565b600082815260656020526040902060010154610e878133611703565b6105d8838361149e565b6001600160a01b0381163314610f015760405162461bcd60e51b815260206004820152602f60248201527f416363657373436f6e74726f6c3a2063616e206f6e6c792072656e6f756e636560448201526e103937b632b9903337b91039b2b63360891b60648201526084016103cb565b610abf8282611767565b60006107ff836001600160a01b0384166117ce565b6001600160a01b038316610f465760405162461bcd60e51b81526004016103cb90612565565b8051825114610f675760405162461bcd60e51b81526004016103cb906125f2565b604080516020810190915260009081905233905b8351811015611040576000848281518110610f9857610f986127df565b602002602001015190506000848381518110610fb657610fb66127df565b602090810291909101810151600084815260c9835260408082206001600160a01b038c1683529093529190912054909150818110156110075760405162461bcd60e51b81526004016103cb90612445565b600092835260c9602090815260408085206001600160a01b038b168652909152909220910390558061103881612798565b915050610f7b565b5060006001600160a01b0316846001600160a01b0316826001600160a01b03167f4a39dc06d4c0dbc64b70af90fd698a233a518aa5d07e595d983b8c0526c8f7fb86866040516110919291906123bc565b60405180910390a450505050565b6001600160a01b0384166110c55760405162461bcd60e51b81526004016103cb9061263a565b336110df816000876110d6886118c1565b6105af886118c1565b600084815260c9602090815260408083206001600160a01b03891684529091528120805485929061111190849061269f565b909155505060408051858152602081018590526001600160a01b0380881692600092918516917fc3d58168c5ae7397731d063d5bbf3d657854427343f4c083240f7aacaa2d0f62910160405180910390a46105af8160008787878761190c565b60006107ff83836119d6565b60006103f9825490565b6000828152606560205260409020600101546111a38133611703565b6105d88383611767565b6001600160a01b0384166111d35760405162461bcd60e51b81526004016103cb906124d2565b336111e38187876110d6886118c1565b600084815260c9602090815260408083206001600160a01b038a168452909152902054838110156112265760405162461bcd60e51b81526004016103cb906125a8565b600085815260c9602090815260408083206001600160a01b038b811685529252808320878503905590881682528120805486929061126590849061269f565b909155505060408051868152602081018690526001600160a01b03808916928a821692918616917fc3d58168c5ae7397731d063d5bbf3d657854427343f4c083240f7aacaa2d0f62910160405180910390a46112c582888888888861190c565b50505050505050565b6001600160a01b0383166112f45760405162461bcd60e51b81526004016103cb90612565565b3361132481856000611305876118c1565b61130e876118c1565b5050604080516020810190915260009052505050565b600083815260c9602090815260408083206001600160a01b0388168452909152902054828110156113675760405162461bcd60e51b81526004016103cb90612445565b600084815260c9602090815260408083206001600160a01b03898116808652918452828520888703905582518981529384018890529092908616917fc3d58168c5ae7397731d063d5bbf3d657854427343f4c083240f7aacaa2d0f62910160405180910390a45050505050565b600054610100900460ff16806113ed575060005460ff16155b6114095760405162461bcd60e51b81526004016103cb90612517565b600054610100900460ff16158015610a28576000805461ffff19166101011790558015610a3a576000805461ff001916905550565b600054610100900460ff1680611457575060005460ff16155b6114735760405162461bcd60e51b81526004016103cb90612517565b600054610100900460ff16158015611495576000805461ffff19166101011790555b610aad82611a00565b6114a88282610806565b610abf5760008281526065602090815260408083206001600160a01b03851684529091529020805460ff191660011790556114e03390565b6001600160a01b0316816001600160a01b0316837f2f8788117e7eff1d82e926ec794901d17c78024a50270940304540a733656f0d60405160405180910390a45050565b600081815260018301602052604081205461156b575081546001818101845560008481526020808220909301849055845484825282860190935260409020919091556103f9565b5060006103f9565b60006001600160e01b03198216635a05180f60e01b14806103f957506103f982611a13565b6001600160a01b0384163b15610e635760405163bc197c8160e01b81526001600160a01b0385169063bc197c81906115dc9089908990889088908890600401612306565b602060405180830381600087803b1580156115f657600080fd5b505af1925050508015611626575060408051601f3d908101601f191682019092526116239181019061220d565b60015b6116d35761163261280b565b806308c379a0141561166c5750611647612827565b80611652575061166e565b8060405162461bcd60e51b81526004016103cb91906123ea565b505b60405162461bcd60e51b815260206004820152603460248201527f455243313135353a207472616e7366657220746f206e6f6e20455243313135356044820152732932b1b2b4bb32b91034b6b83632b6b2b73a32b960611b60648201526084016103cb565b6001600160e01b0319811663bc197c8160e01b146112c55760405162461bcd60e51b81526004016103cb906123fd565b61170d8282610806565b610abf57611725816001600160a01b03166014611a48565b611730836020611a48565b604051602001611741929190612291565b60408051601f198184030181529082905262461bcd60e51b82526103cb916004016123ea565b6117718282610806565b15610abf5760008281526065602090815260408083206001600160a01b0385168085529252808320805460ff1916905551339285917ff6391f5c32d9c69d2a47ea670b442974b53935d1edc7fd64eb21e047a839171b9190a45050565b600081815260018301602052604081205480156118b75760006117f26001836126d6565b8554909150600090611806906001906126d6565b905081811461186b576000866000018281548110611826576118266127df565b9060005260206000200154905080876000018481548110611849576118496127df565b6000918252602080832090910192909255918252600188019052604090208390555b855486908061187c5761187c6127c9565b6001900381819060005260206000200160009055905585600101600086815260200190815260200160002060009055600193505050506103f9565b60009150506103f9565b604080516001808252818301909252606091600091906020808301908036833701905050905082816000815181106118fb576118fb6127df565b602090810291909101015292915050565b6001600160a01b0384163b15610e635760405163f23a6e6160e01b81526001600160a01b0385169063f23a6e61906119509089908990889088908890600401612364565b602060405180830381600087803b15801561196a57600080fd5b505af192505050801561199a575060408051601f3d908101601f191682019092526119979181019061220d565b60015b6119a65761163261280b565b6001600160e01b0319811663f23a6e6160e01b146112c55760405162461bcd60e51b81526004016103cb906123fd565b60008260000182815481106119ed576119ed6127df565b9060005260206000200154905092915050565b8051610abf9060cb906020840190611be4565b60006001600160e01b03198216637965db0b60e01b14806103f957506301ffc9a760e01b6001600160e01b03198316146103f9565b60606000611a578360026126b7565b611a6290600261269f565b67ffffffffffffffff811115611a7a57611a7a6127f5565b6040519080825280601f01601f191660200182016040528015611aa4576020820181803683370190505b509050600360fc1b81600081518110611abf57611abf6127df565b60200101906001600160f81b031916908160001a905350600f60fb1b81600181518110611aee57611aee6127df565b60200101906001600160f81b031916908160001a9053506000611b128460026126b7565b611b1d90600161269f565b90505b6001811115611b95576f181899199a1a9b1b9c1cb0b131b232b360811b85600f1660108110611b5157611b516127df565b1a60f81b828281518110611b6757611b676127df565b60200101906001600160f81b031916908160001a90535060049490941c93611b8e81612719565b9050611b20565b5083156107ff5760405162461bcd60e51b815260206004820181905260248201527f537472696e67733a20686578206c656e67746820696e73756666696369656e7460448201526064016103cb565b828054611bf090612730565b90600052602060002090601f016020900481019282611c125760008555611c58565b82601f10611c2b57805160ff1916838001178555611c58565b82800160010185558215611c58579182015b82811115611c58578251825591602001919060010190611c3d565b50611c64929150611c68565b5090565b5b80821115611c645760008155600101611c69565b80356001600160a01b0381168114611c9457600080fd5b919050565b600082601f830112611caa57600080fd5b81356020611cb78261267b565b604051611cc4828261276b565b8381528281019150858301600585901b87018401881015611ce457600080fd5b60005b85811015611d0357813584529284019290840190600101611ce7565b5090979650505050505050565b600082601f830112611d2157600080fd5b813567ffffffffffffffff811115611d3b57611d3b6127f5565b604051611d52601f8301601f19166020018261276b565b818152846020838601011115611d6757600080fd5b816020850160208301376000918101602001919091529392505050565b60008060408385031215611d9757600080fd5b611da083611c7d565b9150611dae60208401611c7d565b90509250929050565b600080600080600060a08688031215611dcf57600080fd5b611dd886611c7d565b9450611de660208701611c7d565b9350604086013567ffffffffffffffff80821115611e0357600080fd5b611e0f89838a01611c99565b94506060880135915080821115611e2557600080fd5b611e3189838a01611c99565b93506080880135915080821115611e4757600080fd5b50611e5488828901611d10565b9150509295509295909350565b600080600080600060a08688031215611e7957600080fd5b611e8286611c7d565b9450611e9060208701611c7d565b93506040860135925060608601359150608086013567ffffffffffffffff811115611eba57600080fd5b611e5488828901611d10565b600080600060608486031215611edb57600080fd5b611ee484611c7d565b9250602084013567ffffffffffffffff80821115611f0157600080fd5b611f0d87838801611c99565b93506040860135915080821115611f2357600080fd5b50611f3086828701611c99565b9150509250925092565b60008060008060808587031215611f5057600080fd5b611f5985611c7d565b9350602085013567ffffffffffffffff80821115611f7657600080fd5b611f8288838901611c99565b94506040870135915080821115611f9857600080fd5b611fa488838901611c99565b93506060870135915080821115611fba57600080fd5b50611fc787828801611d10565b91505092959194509250565b60008060408385031215611fe657600080fd5b611fef83611c7d565b91506020830135801515811461200457600080fd5b809150509250929050565b6000806040838503121561202257600080fd5b61202b83611c7d565b946020939093013593505050565b60008060006060848603121561204e57600080fd5b61205784611c7d565b95602085013595506040909401359392505050565b6000806000806080858703121561208257600080fd5b61208b85611c7d565b93506020850135925060408501359150606085013567ffffffffffffffff8111156120b557600080fd5b611fc787828801611d10565b600080604083850312156120d457600080fd5b823567ffffffffffffffff808211156120ec57600080fd5b818501915085601f83011261210057600080fd5b8135602061210d8261267b565b60405161211a828261276b565b8381528281019150858301600585901b870184018b101561213a57600080fd5b600096505b848710156121645761215081611c7d565b83526001969096019591830191830161213f565b509650508601359250508082111561217b57600080fd5b5061218885828601611c99565b9150509250929050565b6000602082840312156121a457600080fd5b5035919050565b600080604083850312156121be57600080fd5b82359150611dae60208401611c7d565b600080604083850312156121e157600080fd5b50508035926020909101359150565b60006020828403121561220257600080fd5b81356107ff816128b1565b60006020828403121561221f57600080fd5b81516107ff816128b1565b600081518084526020808501945080840160005b8381101561225a5781518752958201959082019060010161223e565b509495945050505050565b6000815180845261227d8160208601602086016126ed565b601f01601f19169290920160200192915050565b7f416363657373436f6e74726f6c3a206163636f756e74200000000000000000008152600083516122c98160178501602088016126ed565b7001034b99036b4b9b9b4b733903937b6329607d1b60179184019182015283516122fa8160288401602088016126ed565b01602801949350505050565b6001600160a01b0386811682528516602082015260a0604082018190526000906123329083018661222a565b8281036060840152612344818661222a565b905082810360808401526123588185612265565b98975050505050505050565b6001600160a01b03868116825285166020820152604081018490526060810183905260a06080820181905260009061239e90830184612265565b979650505050505050565b6020815260006107ff602083018461222a565b6040815260006123cf604083018561222a565b82810360208401526123e1818561222a565b95945050505050565b6020815260006107ff6020830184612265565b60208082526028908201527f455243313135353a204552433131353552656365697665722072656a656374656040820152676420746f6b656e7360c01b606082015260800190565b60208082526024908201527f455243313135353a206275726e20616d6f756e7420657863656564732062616c604082015263616e636560e01b606082015260800190565b60208082526029908201527f455243313135353a2063616c6c6572206973206e6f74206f776e6572206e6f7260408201526808185c1c1c9bdd995960ba1b606082015260800190565b60208082526025908201527f455243313135353a207472616e7366657220746f20746865207a65726f206164604082015264647265737360d81b606082015260800190565b6020808252602e908201527f496e697469616c697a61626c653a20636f6e747261637420697320616c72656160408201526d191e481a5b9a5d1a585b1a5e995960921b606082015260800190565b60208082526023908201527f455243313135353a206275726e2066726f6d20746865207a65726f206164647260408201526265737360e81b606082015260800190565b6020808252602a908201527f455243313135353a20696e73756666696369656e742062616c616e636520666f60408201526939103a3930b739b332b960b11b606082015260800190565b60208082526028908201527f455243313135353a2069647320616e6420616d6f756e7473206c656e677468206040820152670dad2e6dac2e8c6d60c31b606082015260800190565b60208082526021908201527f455243313135353a206d696e7420746f20746865207a65726f206164647265736040820152607360f81b606082015260800190565b600067ffffffffffffffff821115612695576126956127f5565b5060051b60200190565b600082198211156126b2576126b26127b3565b500190565b60008160001904831182151516156126d1576126d16127b3565b500290565b6000828210156126e8576126e86127b3565b500390565b60005b838110156127085781810151838201526020016126f0565b838111156105195750506000910152565b600081612728576127286127b3565b506000190190565b600181811c9082168061274457607f821691505b6020821081141561276557634e487b7160e01b600052602260045260246000fd5b50919050565b601f8201601f1916810167ffffffffffffffff81118282101715612791576127916127f5565b6040525050565b60006000198214156127ac576127ac6127b3565b5060010190565b634e487b7160e01b600052601160045260246000fd5b634e487b7160e01b600052603160045260246000fd5b634e487b7160e01b600052603260045260246000fd5b634e487b7160e01b600052604160045260246000fd5b600060033d11156128245760046000803e5060005160e01c5b90565b600060443d10156128355790565b6040516003193d81016004833e81513d67ffffffffffffffff816024840111818411171561286557505050505090565b828501915081518181111561287d5750505050505090565b843d87010160208285010111156128975750505050505090565b6128a66020828601018761276b565b509095945050505050565b6001600160e01b031981168114610a3a57600080fdfea2646970667358221220ab2d24f6bfbf6c176c9ef318ce495b766d1b16dbd9e4e8113873d5fb05f5a8a764736f6c63430008060033496e697469616c697a61626c653a20636f6e747261637420697320616c7265619f2df0fed2c77648de5860a4cc508cd0818c85b8b8a1ab4ceeef8d981c8956a67164765a3c8bd2513bdfa0c90f1bee9606e920fbf2c9071f310263fbd818684ba2646970667358221220241bc88d0903145769c2c814f6b58be7bcdfae22de34b29b375667a35387154e64736f6c63430008060033",
  "linkReferences": {},
  "deployedLinkReferences": {}
}